:020000040800F2
:100000000000012011180008251600082B16000812
:1000100031160008371600083D16000800000000E1
:10002000000000000000000000000000431600086F
:100030004F160008000000005B1600086716000855
:1000400059180008591800085918000859180008CC
:1000500059180008591800085918000859180008BC
:1000600059180008591800085918000859180008AC
:10007000591800085918000859180008591800089C
:100080005918000859180008591800087516000872
:10009000891600089D160008B116000859180008B6
:1000A000591800085918000859180008591800086C
:1000B000591800085918000859180008591800085C
:1000C000591800085918000859180008591800084C
:1000D000591800085918000859180008591800083C
:1000E00059180008591800085918000800000000A5
:1000F0000000000000000000000000000000000000
:1001000000000000000000005918000859180008FD
:1001100059180008591800085918000859180008FB
:1001200059180008591800085918000859180008EB
:1001300059180008000000000000000059180008CD
:1001400059180008591800085918000859180008CB
:10015000000000000000000000000000000000009F
:10016000000000000000000000000000000000008F
:10017000000000000000000000000000000000007F
:10018000000000000000000000000000000000006F
:10019000000000000000000000000000000000005F
:1001A000000000000000000000000000000000004F
:1001B000000000000000000000000000000000003F
:1001C000000000000000000000000000000000002F
:1001D000000000000000000000000000000000001F
:0401E0005FF8E0F1F3
:1001E80010B5054C237833B9044B13B10448AFF369
:1001F80000800123237010BD700000200000000063
:10020800C458000808B5034B1BB103490348AFF3B2
:10021800008008BD0000000074000020C4580008D9
:1002280053B94AB9002908BF00281CBF4FF0FF3155
:100238004FF0FF3000F06EB9ADF1080C6DE904CE57
:1002480000F006F8DDF804E0DDE9022304B07047A9
:100258002DE9F047089E0D4604468E46002B40F0D7
:1002680083808A42174647D9B2FA82F34BB1C3F169
:10027800200105FA03FE20FA01F19F4041EA0E0E23
:100288009C404FEA1748BEFBF8FC1FFA87F908FBA9
:100298001CE20CFB09F0210C41EA024290420AD907
:1002A800BA180CF1FF3180F01881904240F21581A4
:1002B800ACF1020C3A44121AB2FBF8F008FB102217
:1002C80000FB09F1A4B244EA0244A14209D93C194D
:1002D80000F1FF3280F00381A14240F20081023830
:1002E8003C44641A002140EA0C401EB10022DC4064
:1002F800C6E90042BDE8F08702B9FFDEB2FA82F330
:10030800002B4FD18D1A01214FEA124E1FFA82F8A5
:10031800B5FBFEFC0EFB1C5508FB0CF0220C42EA58
:100328000545A84207D97D190CF1FF3202D2A8422F
:1003380000F2E98094462D1AB5FBFEF00EFB10552D
:1003480008FB00F8A4B244EA0544A04507D93C19C3
:1003580000F1FF3202D2A04500F2D9801046A4EB8A
:10036800080440EA0C40C0E78B4208D9002E00F090
:10037800B1800021C6E900050846BDE8F087B3FA58
:1003880083F100294BD1AB4202D3824200F2B980FB
:10039800841A65EB030301209E46002EAAD0C6E905
:1003A800004EA7E79F40C3F12002D1404FEA174E05
:1003B800B1FBFEF01FFA87F80EFB101124FA02F2C7
:1003C8009D4000FB08FC2A43150C45EA0145AC4555
:1003D80004FA03F409D97D1900F1FF3180F08F8008
:1003E800AC4540F28C8002383D44A5EB0C05B5FBCA
:1003F800FEF10EFB115C01FB08F995B245EA0C45CC
:10040800A94507D97D1901F1FF3274D2A94572D9DE
:1004180002393D44A5EB090541EA004178E7C1F1FD
:1004280020078B4022FA07FC4CEA030C25FA07F454
:100438004FEA1C4EB4FBFEF91FFA8CF80EFB194468
:1004480020FA07F309FB08FA8D401D432B0C43EAF9
:100458000444A24502FA01F200FA01F309D91CEB9F
:10046800040409F1FF3048D2A24546D9A9F102098E
:100478006444A4EB0A04B4FBFEF00EFB104400FB3A
:1004880008FAADB245EA0444A24508D91CEB0404B5
:1004980000F1FF352DD2A2452BD90238644440EA39
:1004A8000940A0FB0289A4EB0A044C45C6464D4608
:1004B80019D316D05EB1B3EB0E0264EB050404FA4F
:1004C80007F722FA01F31F43CC40C6E90074002164
:1004D800BDE8F087314630460CE78C46EBE610461F
:1004E800FFE64345E6D2B8EB020E69EB0C0501388E
:1004F800E0E72846D3E711468CE78146B9E7084686
:1005080073E7084649E7ACF1020C3D4413E70238AB
:100518003C4424E7704700BF80B58AB000AF284B41
:10052800284A1A60264B08225A60254B00229A60F6
:10053800234B0022DA60224B4FF440321A61204BE1
:100548004FF400125A611E4B00221A761C4B0122EE
:100558005A761B4B00229A76194B0022DA76184BF2
:1005680000221A77164B01225A77154801F0D4F960
:100578000346002B01D000F0C3FF00237B6100235A
:10058800BB610123FB6100233B6000237B600023E8
:10059800BB600023FB6000233B6101233B620E2309
:1005A8007B623B461946064801F0B2FA0346002B27
:1005B80001D000F0A5FF00BF2837BD4680BD00BFB1
:1005C800E00000200064004080B58AB000AF284BEE
:1005D800284A1A60264B08225A60254B00229A6046
:1005E800234B0022DA60224B4FF440321A61204B31
:1005F8004FF400125A611E4B00221A761C4B01223E
:100608005A761B4B00229A76194B0022DA76184B41
:1006180000221A77164B01225A77154801F07CF907
:100628000346002B01D000F06BFF0E237B610123F2
:10063800BB610123FB6100233B6000237B60002337
:10064800BB600023FB6001233B6101233B620E2357
:100658007B623B461946064801F05AFA0346002BCE
:1006680001D000F04DFF00BF2837BD4680BD00BF58
:10067800B80000200068004080B58CB000AF7860FA
:1006880007F11C0300221A605A609A60DA607B68DE
:100698001B686D4A93425BD16C4B1B6801336B4AF4
:1006A80013606A4B1B68012B0BD1694BDB69684AE5
:1006B80043F00073D361664BDB6903F00073BB61E1
:1006C800BB69634B9B69624A43F004039361604BC7
:1006D8009B6903F004037B617B694FF40063FB6152
:1006E80000233B6200237B6207F11C03194659482B
:1006F80002F0D6FA4FF48053FB6102233B620323D6
:10070800BB6207F11C031946524802F0C9FA0022DD
:100718000021132002F09DF8132002F0B6F8002201
:100728000021142002F095F8142002F0AEF80022FF
:100738000021152002F08DF8152002F0A6F80022FD
:100748000021162002F085F8162002F09EF877E0C6
:100758007B681B68404A934272D13D4BDB693C4A37
:1007680043F08063D3613A4BDB6903F080633B61FC
:100778003B69364B1B680133344A1360334B1B68A3
:10078800012B0BD1324BDB69314A43F00073D36143
:100798002F4BDB6903F00073FB60FB682C4B9B69F4
:1007A8002B4A43F008039361294B9B6903F0080324
:1007B800BB60BB682023FB6100233B6200237B6294
:1007C80007F11C031946254802F06AFA4023FB6129
:1007D80002233B620323BB6207F11C0319461F482F
:1007E80002F05EFA1E4B5B68FB62FB6A43F0E06353
:1007F800FB62FB6A43F48003FB62194AFB6A53609D
:10080800002200213F2002F024F83F2002F03DF8AA
:1008180000220021402002F01CF8402002F035F8A8
:1008280000220021412002F014F8412002F02DF8A6
:1008380000220021422002F00CF8422002F025F8A4
:1008480000BF3037BD4680BD006400408C000020EA
:10085800001002400008014000680040000C014000
:100868000000014080B588B000AF02F099F85C4BF9
:100878001B88FB835B4B1B88BB830023FB76FB8BAE
:10088800002B0BD0FB8B4EF6EE62934206D0FB8B0F
:100898004FF6FF72934201D00123FB76BB8B002BEE
:1008A8000BD0BB8B4EF6EE62934206D0BB8B4FF655
:1008B800FF72934201D00123FB76FA8BBB8B9A42DD
:1008C80001D10123FB76FB7E002B29D00023BB60DE
:1008D8000123FB60424B3B6102237B613A1D07F118
:1008E80008031146184602F033F90346BB76BB7E6F
:1008F800002B01D0BB7E6EE04FF000024FF00003EA
:100908003749012001F0DCFF0346BB76BB7E002B94
:1009180001D0BB7E5FE00023FB834FF6FF73BB83F0
:10092800FB8B002B02D1304B2D4A1A60BB8B002B5E
:1009380002D12D4B2B4A1A60FB8B4EF6EE62934286
:1009480002D12A4B264A1A60BB8B4EF6EE629342BE
:1009580002D1264B234A1A60FB8B4FF6FF72934253
:1009680002D1234B1E4A1A60BB8B4FF6FF7293428B
:1009780002D11F4B1B4A1A601B4B1B68184600F01C
:1009880093FA1A4B1B68184600F08EFA174B1B682F
:10099800002B1FD0144B1B68002B0CD1134B1B686A
:1009A8000021184600F0E4F90346BB76BB7E002B15
:1009B80010D0BB7E0FE00C4B1B680C4A1268114626
:1009C800184600F06DF90346BB76BB7E002B01D0BC
:1009D800BB7E00E0002318462037BD4680BD00BF1F
:1009E80000F0000800F80008980000209C00002093
:1009F800A00000202DE9B00385B000AF03463960A0
:100A0800FB80FB88012B01D9062341E0FB88234AA0
:100A180032F8133003F1006303F57043FB60FB68A1
:100A28001F4A934201D1052332E0FB881D4AD35C5B
:100A3800032B11D0032B28DC012B02D0022B06D06C
:100A480023E0FB681B889AB23B681A801FE0FB68AA
:100A58001A683B681A601AE0FB681B6818464FF072
:100A68000001FB6804331B6898464FF000094FF0FB
:100A780000024FF000034346002240EA020441EA24
:100A880003053B68C3E9004501E0052300E00023B6
:100A980018461437BD46BDE8B003704794000020DF
:100AA80000F000089000002080B58CB002AF01462D
:100AB800C7E900230B46FB81734B1B687B62734BB2
:100AC8001B68002B02D0714B1B687B627B6A002B72
:100AD80001D10423D3E07B6A03F50063BB6197F877
:100AE8003030012202FA03F3DBB2023387F82330F5
:100AF80097F83030002B02D1022387F82330644B5B
:100B08001B68002B07D0624B1B68BA69D21A97F88A
:100B180023309A425DD202233B840023FB8323E0E7
:100B2800FA8BFB899A420BD197F83030012202FAEE
:100B380003F39AB23B8C13449BB202333B8410E01C
:100B4800FB8B544AD35C002B0BD0FB8B514AD35CF4
:100B58001A46012393409AB23B8C13449BB202334A
:100B68003B84FB8B0133FB83FB8B012BD8D93B8C5C
:100B7800B3F5006F01D9072381E0474B1B684EF698
:100B8800EE61184600F0F4F80346FB75FB7D002B78
:100B980001D0FB7D73E03D4B1B6802333C4A136078
:100BA800F98997F830300093D7E900230846FFF712
:100BB8007BFF0346FB75FB7D002B01D0FB7D5EE0D0
:100BC80000F06EF80346FB75FB7D002B55D0FB7DCE
:100BD80055E097F83030002B0FD097F830002C4BA9
:100BE8001B68991CD7E9002301F06AFE0346FB75D0
:100BF800FB7D002B01D0FB7D41E097F830309BB2A4
:100C08009B039AB2FB891344BB82214B1968BA8AA9
:100C18004FF00003012001F053FE0346FB75FB7DF6
:100C2800002B01D0FB7D2AE0194B1B689BB2FA8987
:100C380003F58053023399B2184B23F81210FB893D
:100C4800144997F83020CA5497F83030002B04D153
:100C5800FB89124A002122F8131097F823200C4B25
:100C68001B6813440A4A1360094B1B68BA699A4205
:100C780004D8074B00221A6000E000BF0023184682
:100C88002837BD4680BD00BF980000209C0000208A
:100C9800A400002090000020A00000209400002064
:100CA80080B586B002AF2E4B1B689BB203F580530C
:100CB800BB812B4B1B689BB203F5C0537B81002380
:100CC800FB812AE0FB89274A32F81330BA899A4215
:100CD80020D2FB89234A32F813307A899A4219D9EB
:100CE8003A46FB8911461846FFF784FE0346002B57
:100CF80010D1FB891C4AD35CF9890093D7E90023FA
:100D08000846FFF7D1FE03467B727B7A002B01D0A1
:100D18007B7A21E0FB890133FB81FB89012BD1D947
:100D28000F4B1B684FF6FF71184600F021F8034679
:100D38007B727B7A002B01D07B7A0DE00B4B1B6812
:100D48000021184600F014F803467B727B7A002BCA
:100D580001D07B7A00E0002318461037BD4680BDDD
:100D68009800002094000020900000209C000020A3
:100D780080B58AB000AF78600B467B807B884FF6E1
:100D8800FF7293423FD17B689BB203F580537B840B
:100D98007B689BB203F5C0533B840023FB8415E0BA
:100DA800FB8C3D4A32F813307A8C9A420BD2FB8C7A
:100DB800394A32F813303A8C9A4204D9FB8C364AB5
:100DC800002122F81310FB8C0133FB84FB8C012BD0
:100DD800E6D900233B6101237B617B68BB6101236A
:100DE800FB6107F10C0207F110031146184601F0E8
:100DF800AFFE034687F8253097F82530002B13D02F
:100E080097F8253043E07A884FF00003796801208D
:100E180001F056FD034687F8253097F82530002B5A
:100E280002D097F8253032E01C4B1B687A689A424A
:100E380003D11A4B00221A6010E0194B1B687A681C
:100E48009A4203D1164B00221A6007E0154B1B6823
:100E58007A689A4202D1134B00221A607B88002BD1
:100E680003D10E4A7B68136010E07B884EF6EE6271
:100E7800934203D10A4A7B68136007E07B884FF6E8
:100E8800FF72934202D1074A7B6813600023184619
:100E98002837BD4680BD00BF940000209800002080
:100EA8009C000020A000002080B489B000AF7860CA
:100EB8007B68002B01D1002370E07B680233BB61A3
:100EC8007B6803F500633B6159E0BB691B88FB81C4
:100ED800FB894FF6FF72934221D10023FB7702234F
:100EE800FB7513E0FA7DBB6913443A699A4211D93C
:100EF800FA7DBB6913441B889BB24FF6FF7293427D
:100F080001D0FB7DFB77FB7D0233FB75FB7D082B56
:100F1800E8D900E000BFFB7F002B2BD133E0FB8931
:100F28009B0B9BB27B73FB89C3F30D037B817B898E
:100F3800012B15D8BB699BB27A8903F5805302331C
:100F480099B2194B23F812107B8918497A7BCA5435
:100F58007B7B002B04D17B89134A002122F81310D4
:100F68007B7B012202FA03F3FB777B7B002B01D109
:100F78000023FB77FA7FBB6913440233BB61BA696C
:100F88003B699A42A1D30A4ABB691360BA693B69B3
:100F98009A4202D3064B00221A60002318462437CF
:100FA800BD4680BC704700BF940000209000002020
:100FB800A400002080B588B000AF07F1100300221C
:100FC8001A605A609A60DA601A4B9B69194A43F0B2
:100FD80020039361174B9B6903F02003FB60FB68B8
:100FE800144B9B69134A43F004039361114B9B69AB
:100FF80003F00403BB60BB680E4B9B690D4A43F0CA
:10100800080393610B4B9B6903F008037B607B68C3
:101018004FF400433B6100237B610023BB6107F170
:1010280010031946044801F03BFE00BF2037BD46B7
:1010380080BD00BF001002400008014080B500AF2D
:10104800124B134A1A60114B124A5A600F4B002276
:101058009A600E4B0022DA600C4B4FF480421A6102
:101068000A4B00225A61094B00229A61074B002261
:10107800DA61064B00221A62044801F095FF034624
:10108800002B01D000F03CFA00BF80BD0801002011
:1010980000540040801A060080B58AB000AF78601E
:1010A80007F1140300221A605A609A60DA607B68BC
:1010B8001B681D4A934232D11C4B9B691B4A43F063
:1010C80008039361194B9B6903F008033B613B6973
:1010D8004FF440737B611223BB6103233B6207F12A
:1010E80014031946124801F0DBFD124B5B687B6262
:1010F8007B6A43F0E0637B627B6A43F002037B62B6
:101108000C4A7B6A5360094BDB69084A43F40013B5
:10111800D361064BDB6903F40013FB60FB6800BF77
:101128002837BD4680BD00BF005400400010024073
:10113800000C01400000014080B586B002AFFFF707
:1011480091FB0023FB812BE03A46FB8911461846A8
:10115800FFF750FC0346052B1CD1174B00221A70D1
:10116800FB89002B02D0012B0AD016E010A3D3E98B
:101178000023F989032000900846FFF795FC0CE04E
:101188000BA3D3E90023F989032000900846FFF751
:101198008BFC02E0084B01221A70FB890133FB81AA
:1011A800FB89012BD0D900BF00BF1037BD4680BDD9
:1011B800F168E388B5F8E43EA800002080B500AFE8
:1011C80000F048FB00F03CF8FFF7F4FEFFF7A4F945
:1011D800FFF7FAF9FFF732FFFFF7AEFF00BF154838
:1011E80000F093F90346012BF9D0134800F070FD85
:1011F8000346002B01D000F083F948F602410E485F
:1012080000F0ECFF0346002B01D000F079F90B4801
:1012180000F05EFD0346002B01D000F071F948F69E
:101228001041064800F0DAFF0346002B01D000F019
:1012380067F9FEE708010020E0000020B800002060
:1012480080B594B000AF07F1180338220021184682
:1012580003F0CCFB3B1D00221A605A609A60DA60EA
:101268001A610223BB610123FB6219233B6300233C
:10127800FB610223BB630023FB634FF4C0133B6491
:1012880000237B6407F11803184602F08DFE03461D
:10129800002B01D000F034F90F237B600223BB60E0
:1012A8000023FB6000233B6100237B613B1D012180
:1012B800184603F08FF90346002B01D000F020F9FF
:1012C800034B01221A6000BF5037BD4680BD00BFE6
:1012D8007000424280B582B000AF7860114B124A6C
:1012E8000021786800F069FE0346002B15D10E4BEB
:1012F8001B68B3F5547F06D10A4B1B78C72B02D164
:10130800084BC6221A70084B1B689BB2064A126922
:10131800D1B2044A184600F085F800BF0837BD4628
:1013280080BD00BF40020020BC01002080B582B013
:1013380000AF78600B4B0C4A0021786800F03DFE46
:101348000346002B09D1084B1B689BB2064A126959
:10135800D1B2044A184600F009F800BF0837BD4664
:1013680080BD00BF30020020FC01002080B582B0A3
:1013780000AF03463A60FB800B467B7100BF2448F0
:1013880000F0C4FD0346002BF9D0FB88214A136006
:101398007B79204A13613B681A781F4B1A703B68A7
:1013A8005A781D4B5A703B689A781B4B9A703B6869
:1013B800DA78194BDA703B681A79174B1A713B685F
:1013C8005A79154B5A713B689A79134B9A713B6855
:1013D800DA79114BDA71114B0F4A0E490C4800F0BB
:1013E800BBFC0346002B05D000F08AF802E00C484D
:1013F80003F004FB094B1B681946054800F0BAFDC9
:101408000346002BF3D100BF00BF0837BD4680BD9F
:10141800E0000020DC01002038020020B801002094
:10142800DC58000880B582B000AF03463A60FB8004
:101438000B467B7100BF234800F068FD0346002B74
:10144800F9D0FB88204A13607B791F4A13613B68F7
:101458001A781E4B1A703B685A781C4B5A703B68B6
:101468009A781A4B9A703B68DA78184BDA703B68AE
:101478001A79164B1A713B685A79144B5A713B68A2
:101488009A79124B9A713B68DA79104BDA71104BE2
:101498000E4A0D490B4800F05FFC0346002B01D0B3
:1014A80000F02EF800BF0A4B1B681946054800F0EB
:1014B80061FD0346002BF6D100BF00BF0837BD46CB
:1014C80080BD00BFB800002018020020F4010020F1
:1014D800D801002080B584B000AF78607B681846DA
:1014E80001F0B2F8F860054803F088FA3B1D184689
:1014F80001F0B5F800BF1037BD4680BDEC580008B4
:1015080080B400AF72B600BFFEE780B588B004AF04
:101518007860642302930123019307F10F0300937A
:1015280001237522D021786801F07CFFFB7B682BB2
:101538003DD10023BB73642302930123019307F178
:101548000E03009301236B22D021786801F070FE0E
:101558000723BB73642302930123019307F10E034E
:10156800009301231922D021786801F061FE00233D
:10157800BB73642302930123019307F10E030093C5
:1015880001231C22D021786801F052FE0023BB738E
:10159800642302930123019307F10E0300930123AF
:1015A8001B22D021786801F043FE002300E00123CC
:1015B80018461037BD4680BD80B485B000AF154BC6
:1015C8009B69144A43F001039361124B9B6903F032
:1015D8000103BB60BB680F4BDB690E4A43F08053C5
:1015E800D3610C4BDB6903F080537B607B680A4B4B
:1015F8005B68FB60FB6823F0E063FB60FB6843F01B
:101608000073FB60044AFB68536000BF1437BD4693
:1016180080BC7047001002400000014080B400AF59
:10162800FEE780B400AFFEE780B400AFFEE780B409
:1016380000AFFEE780B400AFFEE780B400AF00BFA4
:10164800BD4680BC704780B400AF00BFBD4680BCBB
:10165800704780B400AF00BFBD4680BC704780B5FE
:1016680000AF00F03DF900BF80BD000080B500AFBD
:10167800024800F0D8FD00BF80BD00BFE000002098
:1016880080B500AF024800F0CEFD00BF80BD00BFAE
:10169800E000002080B500AF024800F0C4FD00BFA4
:1016A80080BD00BFE000002080B500AF024800F018
:1016B800BAFD00BF80BD00BFE000002080B586B045
:1016C80000AFF860B9607A6000237B610AE0AFF38D
:1016D80000800146BB685A1CBA60CAB21A707B699E
:1016E80001337B617A697B689A42F0DB7B68184634
:1016F8001837BD4680BD80B586B000AFF860B960C8
:101708007A6000237B6109E0BB685A1CBA601B78C9
:101718001846AFF300807B6901337B617A697B6887
:101728009A42F1DB7B6818461837BD4680BD80B405
:1017380083B000AF78604FF0FF3318460C37BD46D2
:1017480080BC704780B483B000AF786039603B6874
:101758004FF400525A60002318460C37BD4680BC2F
:10176800704780B483B000AF7860012318460C3707
:10177800BD4680BC704780B485B000AFF860B960E2
:101788007A60002318461437BD4680BC70470000B5
:1017980080B586B000AF7860144A154BD31A7B61C8
:1017A8007B693B61134B1B68002B02D1114B124A1A
:1017B8001A60104B1A687B6813443A699A4207D238
:1017C80003F0EAF803460C221A604FF0FF3309E0F1
:1017D800084B1B68FB60074B1A687B681344054A73
:1017E8001360FB6818461837BD4680BD000001200D
:1017F80000040000AC0000208002002080B400AF8C
:1018080000BFBD4680BC70470C480D490D4A0023F7
:1018180002E0D458C4500433C4188C42F9D30A4A9D
:101828000A4C002301E013600432A242FBD3FFF705
:10183800E5FF03F0B7F8FFF7C1FC70470000002090
:1018480070000020D4590008700000208002002099
:10185800FEE7000080B500AF084B1B68074A43F05D
:1018680010031360032000F0E9FF0F2000F008F8D0
:10187800FFF7A2FE0023184680BD00BF00200240EB
:1018880080B582B000AF7860124B1A68124B1B7893
:1018980019464FF47A73B3FBF1F3B2FBF3F318462E
:1018A80001F001F80346002B01D001230EE07B680C
:1018B8000F2B0AD8002279684FF0FF3000F0C9FFDB
:1018C800064A7B681360002300E0012318460837A6
:1018D800BD4680BD00000020080000200400002054
:1018E80080B400AF054B1B781A46054B1B681344A0
:1018F800034A136000BFBD4680BC70470800002043
:101908004802002080B400AF024B1B681846BD4651
:1019180080BC70474802002080B584B000AF786072
:101928007B68002B01D10123EDE07B6893F8203020
:10193800DBB2002B02D17868FEF79EFE7B681B683D
:101948001A687B681B6842F001021A60FFF7DAFF29
:10195800F86012E0FFF7D6FF0246FB68D31A0A2B9D
:101968000BD97B685B6A43F400327B685A627B68F8
:10197800052283F820200123C5E07B681B685B688B
:1019880003F00103002BE5D07B681B681A687B68AD
:101998001B6822F002021A60FFF7B4FFF86012E039
:1019A800FFF7B0FF0246FB68D31A0A2B0BD97B68F6
:1019B8005B6A43F400327B685A627B68052283F8CD
:1019C800202001239FE07B681B685B6803F002030B
:1019D800002BE5D17B681B7E012B08D17B681B6837
:1019E8001A687B681B6842F080021A6007E07B680F
:1019F8001B681A687B681B6822F080021A607B6883
:101A08005B7E012B08D17B681B681A687B681B68A2
:101A180042F040021A6007E07B681B681A687B681E
:101A28001B6822F040021A607B689B7E012B08D15C
:101A38007B681B681A687B681B6842F020021A6082
:101A480007E07B681B681A687B681B6822F0200225
:101A58001A607B68DB7E012B08D17B681B681A68DB
:101A68007B681B6822F010021A6007E07B681B681D
:101A78001A687B681B6842F010021A607B681B7F3B
:101A8800012B08D17B681B681A687B681B6842F0C9
:101A980008021A6007E07B681B681A687B681B6885
:101AA80022F008021A607B685B7F012B08D17B68F3
:101AB8001B681A687B681B6842F004021A6007E01A
:101AC8007B681B681A687B681B6822F004021A602E
:101AD8007B689A687B68DB681A437B681B691A43D2
:101AE8007B685B6942EA03017B685B685A1E7B6816
:101AF8001B680A43DA617B6800225A627B6801220C
:101B080083F82020002318461037BD4680BD00000A
:101B180080B487B000AF786039607B681B687B61F0
:101B28007B6893F82030FB74FB7C012B03D0FB7C93
:101B3800022B40F0BE80654B7B617B69D3F8003295
:101B480043F001027B69C3F800227B69D3F80032B5
:101B580023F47C527B69C3F800227B69D3F8002206
:101B68003B685B6A1B021A437B69C3F800223B6827
:101B78005B6903F01F03012202FA03F3FB607B6930
:101B8800D3F81C22FB68DB431A407B69C3F81C228C
:101B98003B68DB69002B23D17B69D3F80C22FB68F7
:101BA800DB431A407B69C3F80C223B68DB681904E5
:101BB8003B685B689BB23A68526919437B69483253
:101BC80043F832103B689B6819043B681B689AB25B
:101BD8003B685B690A4379694833DB000B445A6008
:101BE8003B68DB69012B22D17B69D3F80C22FB68A7
:101BF8001A437B69C3F80C223B681B6819043B68CD
:101C08005B689BB23A68526919437B69483243F86A
:101C180032103B689B6819043B68DB689AB23B68E2
:101C28005B690A4379694833DB000B445A603B68B7
:101C38009B69002B09D17B69D3F80422FB68DB433D
:101C48001A407B69C3F8042207E07B69D3F80422B1
:101C5800FB681A437B69C3F804223B681B69002BA5
:101C680009D17B69D3F81422FB68DB431A407B69EE
:101C7800C3F8142207E07B69D3F81422FB681A43DF
:101C88007B69C3F814223B681B6A012B07D17B6967
:101C9800D3F81C22FB681A437B69C3F81C227B69B2
:101CA800D3F8003223F001027B69C3F80022002335
:101CB80006E07B685B6A43F480227B685A620123F2
:101CC80018461C37BD4680BC704700BF0064004002
:101CD80080B584B000AF78607B6893F82030DBB2C1
:101CE800012B2ED17B68022283F820207B681B6899
:101CF8001A687B681B6822F001021A60FFF702FE6F
:101D0800F86012E0FFF7FEFD0246FB68D31A0A2BC3
:101D18000BD97B685B6A43F400327B685A627B6844
:101D2800052283F82020012312E07B681B685B688A
:101D380003F00103002BE5D17B6800225A620023DF
:101D480006E07B685B6A43F400227B685A620123E1
:101D580018461037BD4680BD80B489B000AFF86022
:101D6800B9607A603B60FB6893F82030FB77FB68CA
:101D78001B689B68BB61FB7F012B03D0FB7F022B99
:101D880040F0B880BB6903F08063002B0AD1BB69BF
:101D980003F00063002B05D1BB6903F08053002BCF
:101DA80000F0A080BB691B0E03F003037B617B6915
:101DB800022B07D9FB685B6A43F40002FB685A628E
:101DC80001239EE001227B699A403B681A60BB6848
:101DD8009B68002B0DD1BB681B685A05BB68DB6884
:101DE800F96809681A437B6918331B010B441A60A8
:101DF8000FE0BB685B68DA00BB689B681A43BB6886
:101E0800DB68F96809681A437B6918331B010B44BE
:101E18001A60FB681968BB681A697B6918331B016B
:101E28000B4404331A60BB681B7D012B11D1FB687E
:101E38001A687B6918331B01134404331B68FA685A
:101E4800116843F480727B6918331B010B44043317
:101E58001A607B6807331B781A067B6806331B7881
:101E68001B041A437B6805331B781B0213437A68EB
:101E7800043212781046FA68116843EA00027B6956
:101E88001B010B4403F5C6731A607B6803331B7888
:101E98001A067B6802331B781B041A437B680133DC
:101EA8001B781B0213437A6812781046FA68116887
:101EB80043EA00027B691B010B4403F5C4731A60F3
:101EC800FB681A687B6918331B0113441B68FA689E
:101ED800116843F001027B6918331B010B441A6037
:101EE80000230EE0FB685B6A43F40012FB685A6249
:101EF800012306E0FB685B6A43F48022FB685A62B0
:101F0800012318462437BD4680BC704780B485B08D
:101F180000AF78600023FB607B6893F82030FB7289
:101F2800FB7A012B02D0FB7A022B1DD17B681B6840
:101F38009B6803F08063002B02D0FB680133FB60D1
:101F48007B681B689B6803F00063002B02D0FB686A
:101F58000133FB607B681B689B6803F08053002B90
:101F680002D0FB680133FB60FB6818461437BD4696
:101F780080BC704780B485B000AF786039600023BA
:101F8800FB607B6893F82030FB72FB7A012B02D050
:101F9800FB7A022B0BD17B681B689A683B689B060F
:101FA8001A403B689B069A4201D00123FB60FB68FC
:101FB80018461437BD4680BC704780B487B000AF60
:101FC800F860B9607A603B60FB6893F82030FB7575
:101FD800FB7D012B03D0FB7D022B40F0F380BB6817
:101FE800002B0ED1FB681B68DB6803F00303002B92
:101FF80016D1FB685B6A43F40012FB685A6201233E
:10200800E7E0FB681B681B6903F00303002B07D19B
:10201800FB685B6A43F40012FB685A620123D8E04C
:10202800FB681A68BB681B331B0113441B6803F069
:1020380004027B689A607B689B68002B0CD1FB6864
:102048001A68BB681B331B0113441B685B0DC3F381
:102058000A027B681A600BE0FB681A68BB681B33CE
:102068001B0113441B68DB0823F060427B685A603D
:10207800FB681A68BB681B331B0113441B6803F019
:1020880002027B68DA60FB681A68BB681B331B01B5
:10209800134404331B6803F00F027B681A61FB6862
:1020A8001A68BB681B331B01134404331B681B0AE3
:1020B800DAB27B689A61FB681A68BB681B331B013C
:1020C800134404331B681B0C9AB27B685A61FB6883
:1020D8001A68BB681B01134403F5DC731B68DAB28A
:1020E8003B681A70FB681A68BB681B01134403F548
:1020F800DC731B681A0A3B680133D2B21A70FB689A
:102108001A68BB681B01134403F5DC731B681A0CBF
:102118003B680233D2B21A70FB681A68BB681B01AD
:10212800134403F5DC731B681A0E3B680333D2B201
:102138001A70FB681A68BB681B01134403F5DE7349
:102148001A683B680433D2B21A70FB681A68BB6815
:102158001B01134403F5DE731B681A0A3B68053339
:10216800D2B21A70FB681A68BB681B01134403F5E6
:10217800DE731B681A0C3B680633D2B21A70FB6810
:102188001A68BB681B01134403F5DE731B681A0E3B
:102198003B680733D2B21A70BB68002B08D1FB68C2
:1021A8001B68DA68FB681B6842F02002DA6007E007
:1021B800FB681B681A69FB681B6842F020021A61F9
:1021C800002306E0FB685B6A43F48022FB685A62DE
:1021D800012318461C37BD4680BC704780B485B0C3
:1021E80000AF786039607B6893F82030FB73FB7B25
:1021F800012B02D0FB7B022B09D17B681B68596934
:102208007B681B683A680A435A61002306E07B68CA
:102218005B6A43F480227B685A62012318461437AC
:10222800BD4680BC704780B58AB000AF7860002397
:102238007B627B681B685B693B627B681B685B68C9
:10224800FB617B681B689B68BB617B681B68DB68FC
:102258007B617B681B681B693B617B681B689B69AA
:10226800FB603B6A03F00103002B7CD0BB6903F0E1
:102278000103002B23D07B681B6801229A60BB698D
:1022880003F00203002B03D0786800F083F916E00E
:10229800BB6903F00403002B04D07B6A43F400639A
:1022A8007B620CE0BB6903F00803002B04D07B6A57
:1022B80043F480537B6202E0786800F086F9BB69DA
:1022C80003F48073002B24D07B681B684FF4807262
:1022D8009A60BB6903F40073002B03D0786800F0A0
:1022E80062F916E0BB6903F48063002B04D07B6AB3
:1022F80043F400537B620CE0BB6903F40063002BDA
:1023080004D07B6A43F480437B6202E0786800F083
:1023180065F9BB6903F48033002B24D07B681B6804
:102328004FF480329A60BB6903F40033002B03D06A
:10233800786800F041F916E0BB6903F48023002BAC
:1023480004D07B6A43F400437B620CE0BB6903F46E
:102358000023002B04D07B6A43F480337B6202E0C5
:10236800786800F044F93B6A03F00803002B0CD0AE
:102378007B6903F01003002B07D07B6A43F40073DA
:102388007B627B681B681022DA603B6A03F00403F7
:10239800002B0BD07B6903F00803002B06D07B6869
:1023A8001B680822DA60786800F02AF93B6A03F0B3
:1023B8000203002B09D07B681B68DB6803F003036A
:1023C800002B02D07868FEF785FF3B6A03F04003D4
:1023D800002B0CD03B6903F01003002B07D07B6A5D
:1023E80043F480637B627B681B6810221A613B6A36
:1023F80003F02003002B0BD03B6903F00803002BEC
:1024080006D07B681B6808221A61786800F001F919
:102418003B6A03F01003002B09D07B681B681B691B
:1024280003F00303002B02D07868FEF77FFF3B6AB6
:1024380003F40033002B0BD0FB6903F01003002BCF
:1024480006D07B681B6810225A60786800F0EAF8AA
:102458003B6A03F48033002B0BD0FB6903F00803BD
:10246800002B06D07B681B6808225A60786800F049
:10247800E2F83B6A03F40043002B7BD0FB6903F0CE
:102488000403002B72D03B6A03F48073002B08D03E
:10249800FB6803F00103002B03D07B6A43F00103C0
:1024A8007B623B6A03F40073002B08D0FB6803F0DF
:1024B8000203002B03D07B6A43F002037B623B6A72
:1024C80003F48063002B08D0FB6803F00403002B9F
:1024D80003D07B6A43F004037B623B6A03F4006326
:1024E800002B43D0FB6803F07003002B3ED0FB6841
:1024F80003F07003602B2BD0602B2ED8502B22D0EA
:10250800502B2AD8402B19D0402B26D8302B10D04E
:10251800302B22D8102B02D0202B05D01DE07B6A4F
:1025280043F008037B6219E07B6A43F010037B6287
:1025380014E07B6A43F020037B620FE07B6A43F080
:1025480040037B620AE07B6A43F080037B6205E01C
:102558007B6A43F480737B6200E000BF7B681B6882
:102568009A697B681B6822F070029A617B681B6815
:1025780004225A607B6A002B08D07B685A6A7B6AFF
:102588001A437B685A627868FEF7A4FF00BF2837B1
:10259800BD4680BD80B483B000AF786000BF0C3703
:1025A800BD4680BC704780B483B000AF786000BF80
:1025B8000C37BD4680BC704780B483B000AF7860EC
:1025C80000BF0C37BD4680BC704780B483B000AFF5
:1025D800786000BF0C37BD4680BC704780B483B0BC
:1025E80000AF786000BF0C37BD4680BC704780B430
:1025F80083B000AF786000BF0C37BD4680BC704721
:1026080080B483B000AF786000BF0C37BD4680BC93
:10261800704780B483B000AF786000BF0C37BD4608
:1026280080BC704780B483B000AF786000BF0C37BF
:10263800BD4680BC704780B483B000AF786000BFEF
:102648000C37BD4680BC704780B483B000AF78605B
:102658007B685B6A18460C37BD4680BC704780B4FF
:1026680085B000AF78600023FB737B6893F8203057
:10267800BB73BB7B012B02D0BB7B022B03D17B68D6
:1026880000225A6207E07B685B6A43F480227B6819
:102698005A620123FB73FB7B18461437BD4680BC86
:1026A8007047000080B485B000AF78607B6803F0A5
:1026B8000703FB600C4BDB68BB60BA684FF6FF038F
:1026C8001340BB60FB681A02BB68134343F0BF6347
:1026D80043F40033BB60044ABB68D36000BF1437BF
:1026E800BD4680BC704700BF00ED00E080B400AF7D
:1026F800044BDB681B0A03F007031846BD4680BC81
:10270800704700BF00ED00E080B483B000AF03461F
:10271800FB7197F90730002B0BDBFB7903F01F02E5
:10272800064997F907305B09012000FA02F241F8DF
:10273800232000BF0C37BD4680BC704700E100E095
:1027480080B483B000AF03463960FB7197F9073056
:10275800002B0ADB3B68DAB20C4997F90730120103
:10276800D2B20B4483F800230AE03B68DAB2084986
:10277800FB7903F00F03043B1201D2B20B441A7623
:1027880000BF0C37BD4680BC704700BF00E100E0C9
:1027980000ED00E080B489B000AFF860B9607A60FD
:1027A800FB6803F00703FB61FB69C3F10703042B14
:1027B80028BF0423BB61FB690433062B02D9FB69DC
:1027C800033B00E000237B614FF0FF32BB6902FA54
:1027D80003F3DA43BB681A407B699A404FF0FF3134
:1027E8007B6901FA03F3D9437B680B40134318460E
:1027F8002437BD4680BC704780B582B000AF786092
:102808007B68013BB3F1807F01D301230FE00A4AC3
:102818007B68013B53600F214FF0FF30FFF790FFBB
:10282800054B00229A60044B07221A6000231846C1
:102838000837BD4680BD00BF10E000E080B582B01B
:1028480000AF78607868FFF72DFF00BF0837BD46F6
:1028580080BD80B586B000AF0346B9607A60FB736F
:1028680000237B61FFF742FF78617A68B96878696D
:10287800FFF790FF024697F90F3011461846FFF709
:102888005FFF00BF1837BD4680BD80B582B000AF7E
:102898000346FB7197F907301846FFF735FF00BF6D
:1028A8000837BD4680BD80B582B000AF78607868D3
:1028B800FFF7A2FF034618460837BD4680BD000053
:1028C800F0B587B000AFF860B960C7E9002301230D
:1028D800FB750023BB7500237B752F4B1B7E012BDB
:1028E80001D1022354E02C4B01221A764CF25030CD
:1028F80000F098F80346FB75FB7D002B44D1FB687C
:10290800012B02D101237B7507E0FB68022B02D162
:1029180002237B7501E004237B750023BB752DE042
:10292800BB7D5A00BB6802EB030CBB7D1901D7E9DC
:102938000023C1F12006A1F1200022FA01F403FAD4
:1029480006F6344323FA00F0044323FA01F5A3B250
:102958001946604600F04AF84CF2503000F062F830
:102968000346FB750D4B1B690C4A23F001031361E9
:10297800FB7D002B07D1BB7D0133BB75BA7D7B7D09
:102988009A42CDD300E000BF034B00221A76FB7DAC
:1029980018461C37BD46F0BD5002002000200240FA
:1029A80080B483B000AF0023FB710D4B1B6903F0AB
:1029B8008003002B0DD00A4B0A4A5A60084B0A4A7A
:1029C8005A60074B1B6903F08003002B01D00123D9
:1029D800FB71FB7918460C37BD4680BC704700BFB9
:1029E8000020024023016745AB89EFCD80B483B056
:1029F80000AF78600B467B80084B0022DA61084BF9
:102A08001B69074A43F0010313617B687A881A80BF
:102A180000BF0C37BD4680BC704700BF5002002085
:102A28000020024080B584B000AF7860FEF76AFFEE
:102A3800F86010E07B68B3F1FF3F0CD07B68002B97
:102A480007D0FEF75FFF0246FB68D31A7A689A42FE
:102A580001D2032325E0154BDB6803F00103002BAB
:102A6800E8D1124BDB6803F02003002B02D00F4B98
:102A78002022DA600D4BDB6803F01003002B0BD12A
:102A88000A4BDB6903F00103002B05D1074BDB6818
:102A980003F00403002B03D000F00AF8012300E040
:102AA800002318461037BD4680BD00BF00200240F5
:102AB80080B483B000AF00237B60234BDB6803F056
:102AC8001003002B09D0214BDB6943F002031F4A96
:102AD800D3617B6843F010037B601B4BDB6803F01A
:102AE8000403002B09D0194BDB6943F00103174A93
:102AF800D3617B6843F004037B60134BDB6903F00D
:102B08000103002B0BD0114BDB6943F004030F4A80
:102B1800D3610D4BDB690C4A23F00103D3617B6859
:102B280040F20112934206D1074BDB69064A23F0B3
:102B38000103D36102E0044A7B68D36000BF0C370D
:102B4800BD4680BC704700BF0020024050020020F4
:102B580080B584B000AF786039600123FB7300232F
:102B6800BB602F4B1B7E012B01D1022353E02C4B62
:102B780001221A767B681B68022B16D14CF2503062
:102B8800FFF750FF0346002B41D1012000F04CF81D
:102B98004CF25030FFF746FF0346FB73214B1B698D
:102BA800204A23F00403136131E04CF25030FFF760
:102BB80039FF0346002B2AD13B684FF0FF321A60D9
:102BC8007B689B68BB6019E0B86800F049F84CF274
:102BD8005030FFF727FF0346FB73124B1B69114A5E
:102BE80023F002031361FB7B002B03D03B68BA6818
:102BF8001A600CE0BB6803F50063BB607B68DB68A8
:102C0800DA027B689B681344BA689A42DCD3044BA7
:102C180000221A76FB7B18461037BD4680BD00BFE0
:102C2800500200200020024080B483B000AF7860DA
:102C3800094B0022DA61094B1B69084A43F0040377
:102C48001361064B1B69054A43F04003136100BF3B
:102C58000C37BD4680BC704750020020002002405F
:102C680080B483B000AF78600B4B0022DA610B4B65
:102C78001B690A4A43F002031361084A7B685361DF
:102C8800064B1B69054A43F04003136100BF0C372C
:102C9800BD4680BC704700BF5002002000200240A3
:102CA80080B48BB000AF7860396000237B6200236A
:102CB8003B6269E101227B6A02FA03F3FB613B682C
:102CC8001B68FA691340BB61BA69FB699A4240F014
:102CD80058813B685B689A4A93425ED0984A93420F
:102CE80075D8984A934258D0964A93426FD8964AD4
:102CF800934252D0944A934269D8944A93424CD012
:102D0800924A934263D8924A934246D0904A934259
:102D18005DD8122B2AD8122B59D801A252F823F0C9
:102D2800A32D00087D2D00088F2D0008D12D000847
:102D3800D72D0008D72D0008D72D0008D72D00085B
:102D4800D72D0008D72D0008D72D0008D72D00084B
:102D5800D72D0008D72D0008D72D0008D72D00083B
:102D6800D72D0008852D0008992D0008794A93422F
:102D780013D02CE03B68DB683B6229E03B68DB68EA
:102D880004333B6224E03B68DB6808333B621FE0A6
:102D98003B68DB680C333B621AE03B689B68002B9E
:102DA80002D104233B6213E03B689B68012B05D1E9
:102DB80008233B627B68FA691A6109E008233B62D1
:102DC8007B68FA695A6103E000233B6200E000BFB8
:102DD800BB69FF2B01D87B6801E07B6804337B610A
:102DE800BB69FF2B02D87B6A9B0002E07B6A083B29
:102DF8009B003B617B691A680F213B6901FA03F369
:102E0800DB431A40396A3B6901FA03F31A437B69C9
:102E18001A603B685B6803F08053002B00F0B180B8
:102E28004D4B9B694C4A43F0010393614A4B9B69A4
:102E380003F00103BB60BB68484A7B6A9B08023306
:102E480052F82330FB607B6A03F003039B000F22D8
:102E580002FA03F3DB43FA681340FB607B68404ADD
:102E6800934213D07B683F4A93420DD07B683E4A19
:102E7800934207D07B683D4A934201D1032306E081
:102E8800042304E0022302E0012300E000237A6A1D
:102E980002F0030292009340FA681343FB602F4943
:102EA8007B6A9B080233FA6841F823203B685B6819
:102EB80003F48033002B06D02D4B1A682C49BB69CC
:102EC80013430B6006E02A4B1A68BB69DB432849A9
:102ED80013400B603B685B6803F40033002B06D09B
:102EE800234B5A682249BB6913434B6006E0204BC9
:102EF8005A68BB69DB431E4913404B603B685B68FB
:102F080003F48013002B06D0194B9A681849BB6943
:102F180013438B6006E0164B9A68BB69DB43144980
:102F280013408B603B685B6803F40013002B21D0CF
:102F38000F4BDA680E49BB691343CB6021E000BF31
:102F48000000321000003110000022100000211093
:102F58000000121000001110001002400000014093
:102F680000080140000C014000100140001401401D
:102F7800000401400B4BDA68BB69DB430949134085
:102F8800CB607B6A01337B623B681A687B6A22FAF2
:102F980003F3002B7FF48EAE00BF00BF2C37BD4675
:102FA80080BC70470004014080B584B000AF7860F1
:102FB8007B68002B01D101232BE17B6893F83D301E
:102FC800DBB2002B06D17B68002283F83C207868AE
:102FD800FEF762F87B68242283F83D207B681B6833
:102FE8001A687B681B6822F001021A607B681B68FC
:102FF8001A687B681B6842F400421A607B681B6889
:103008001A687B681B6822F400421A6001F092FC7F
:10301800F8607B685B68814A934207D8FB68804AFE
:10302800934294BF01230023DBB206E0FB687D4A8C
:10303800934294BF01230023DBB2002B01D001236C
:10304800E7E0FB68784AA2FB03239B0CBB607B6824
:103058001B685B6823F03F017B681B68BA680A43FA
:103068005A607B681B681B6A23F03F017B685B68BA
:103078006A4A934202D8BB68013309E0BB684FF43F
:10308800967202FB03F3694AA2FB03239B090133EF
:103098007A6812680B4313627B681B68DB6923F448
:1030A8004F4222F0FF027B685B685C498B4219D86B
:1030B800FB68591E7B685B685B00B1FBF3F3591C26
:1030C80040F6FC730B40002B0AD0FB68591E7B6846
:1030D8005B685B00B1FBF3F30133C3F30B0351E00F
:1030E80004234FE07B689B68002B11D1FB68581EB6
:1030F8007B6859680B465B000B44B0FBF3F3013364
:10310800C3F30B03002B0CBF01230023DBB212E037
:10311800FB68581E7B6859680B469B000B44990056
:103128000B44B0FBF3F30133C3F30B03002B0CBFC9
:1031380001230023DBB2002B01D0012322E07B68AE
:103148009B68002B0ED1FB68581E7B6859680B469C
:103158005B000B44B0FBF3F30133C3F30B0343F4FD
:1031680000430FE0FB68581E7B6859680B469B00BC
:103178000B4499000B44B0FBF3F30133C3F30B0387
:1031880043F44043796809681343CB617B681B6843
:103198001B6823F0C0017B68DA697B681B6A1A43E5
:1031A8007B681B680A431A607B681B689B6823F46A
:1031B800034323F0FF037A6811697A68D2681143E0
:1031C8007A6812680B4393607B681B68DB6823F09E
:1031D800FF017B685A697B689B691A437B681B6897
:1031E8000A43DA607B681B681A687B681B6842F0D0
:1031F80001021A607B6800221A647B68202283F827
:103208003D207B6800221A637B68002283F83E20F9
:10321800002318461037BD4680BD00BFA0860100B8
:103228007F841E00FF083D0083DE1B43D34D6210E0
:1032380080B588B002AFF860084611461A460346C2
:103248007B810B463B811346FB80FEF75BFB786175
:10325800FB6893F83D30DBB2202B40F0D9807B69C6
:103268000093192301226D49F86800F0C1FC034658
:10327800002B01D00223CCE0FB6893F83C30012BF3
:1032880001D10223C5E0FB68012283F83C20FB68DA
:103298001B681B6803F00103012B07D0FB681B6840
:1032A8001A68FB681B6842F001021A60FB681B6819
:1032B8001A68FB681B6822F400621A60FB68212206
:1032C80083F83D20FB68402283F83E20FB680022FB
:1032D8001A64FB683A6A5A62FB68BA8C5A85FB68BA
:1032E8005B8D9AB2FB681A85FB684D4ADA62F888EA
:1032F8003A8979897B690193BB6A00930346F86828
:1033080000F0F8FA0346002B52D0012381E07A69D5
:10331800B96AF86800F042FD0346002B0DD0FB683F
:103328001B6C042B07D1FB681B681A68FB681B68B9
:1033380042F400721A6001236BE0FB685B6A1A783A
:10334800FB681B681A61FB685B6A5A1CFB685A6257
:10335800FB681B8D013B9AB2FB681A85FB685B8D85
:103368009BB2013B9AB2FB685A85FB681B685B6994
:1033780003F00403042B1BD1FB681B8D002B17D013
:10338800FB685B6A1A78FB681B681A61FB685B6AF2
:103398005A1CFB685A62FB681B8D013B9AB2FB689A
:1033A8001A85FB685B8D9BB2013B9AB2FB685A8514
:1033B800FB681B8D002BAAD17A69B96AF86800F0FE
:1033C8002EFD0346002B0DD0FB681B6C042B07D188
:1033D800FB681B681A68FB681B6842F400721A6075
:1033E800012316E0FB681B681A68FB681B6842F437
:1033F80000721A60FB68202283F83D20FB680022D7
:1034080083F83E20FB68002283F83C20002300E07C
:10341800022318461837BD4680BD00BF02001000C1
:103428000000FFFF80B58CB002AFF8600846114677
:103438001A4603467B810B463B811346FB800023DB
:103448003B62FEF75FFA7862FB6893F83D30DBB2C7
:10345800202B40F044827B6A009319230122824981
:10346800F86800F0C5FB0346002B01D0022337E2C1
:10347800FB6893F83C30012B01D1022330E2FB6852
:10348800012283F83C20FB681B681B6803F00103DA
:10349800012B07D0FB681B681A68FB681B6842F0A1
:1034A80001021A60FB681B681A68FB681B6822F433
:1034B80000621A60FB68222283F83D20FB684022E4
:1034C80083F83E20FB6800221A64FB683A6B5A6254
:1034D800FB68BA8E5A85FB685B8D9AB2FB681A85C1
:1034E800FB68624ADA62F8883A8979897B6A0193CB
:1034F800BB6B00930346F86800F092FA0346002B72
:1035080001D00123ECE1FB681B8D002B13D10023B4
:10351800FB61FB681B685B69FB61FB681B689B6957
:10352800FB61FB69FB681B681A68FB681B6842F44F
:1035380000721A60C0E1FB681B8D012B1ED1FB686D
:103548001B681A68FB681B6822F480621A6072B6EE
:1035580000BF0023BB61FB681B685B69BB61FB683C
:103568001B689B69BB61BB69FB681B681A68FB68C1
:103578001B6842F400721A6062B635E0FB681B8D66
:10358800022B1ED1FB681B681A68FB681B6842F493
:1035980000621A6072B600BF00237B61FB681B687B
:1035A8005B697B61FB681B689B697B617B69FB6866
:1035B8001B681A68FB681B6822F480621A6062B68E
:1035C80012E0FB681B681A68FB681B6842F480629B
:1035D8001A6000233B61FB681B685B693B61FB6801
:1035E8001B689B693B613B6966E1FB681B8D032B8C
:1035F80000F21F81FB681B8D012B23D17A6AB96BFE
:10360800F86800F04DFC0346002B01D0012367E168
:10361800FB681B681A69FB685B6AD2B21A70FB68A0
:103628005B6A5A1CFB685A62FB681B8D013B9AB2A5
:10363800FB681A85FB685B8D9BB2013B9AB2FB68FD
:103648005A8539E1FB681B8D022B52D17B6A0093A6
:10365800BB6B00220649F86800F0CAFA0346002B43
:1036680008D001233CE100BF020010000000FFFF6A
:103678000400010072B600BFFB681B681A68FB688B
:103688001B6842F400721A60FB681B681A69FB68C1
:103698005B6AD2B21A70FB685B6A5A1CFB685A6292
:1036A800FB681B8D013B9AB2FB681A85FB685B8D32
:1036B8009BB2013B9AB2FB685A8562B600BFFB68B1
:1036C8001B681A69FB685B6AD2B21A70FB685B6A8E
:1036D8005A1CFB685A62FB681B8D013B9AB2FB6857
:1036E8001A85FB685B8D9BB2013B9AB2FB685A85D1
:1036F800E2E07B6A0093BB6B00227B49F86800F02C
:1037080077FA0346002B01D00123E9E0FB681B6828
:103718001A68FB681B6822F480621A6072B600BFE0
:10372800FB681B681A69FB685B6AD2B21A70FB688F
:103738005B6A5A1CFB685A62FB681B8D013B9AB294
:10374800FB681A85FB685B8D9BB2013B9AB2FB68EC
:103758005A85664B1B68DB08654AA2FB03231A0AD5
:1037680013469B001344DA00D31A3B623B6A013BC1
:103778003B623B6A002B18D1FB6800221A63FB6886
:10378800202283F83D20FB68002283F83E20FB6856
:103798001B6C43F02002FB681A6462B600BFFB682A
:1037A800002283F83C2001239AE0FB681B685B69D0
:1037B80003F00403042BD9D1FB681B681A68FB6863
:1037C8001B6842F400721A60FB681B681A69FB6880
:1037D8005B6AD2B21A70FB685B6A5A1CFB685A6251
:1037E800FB681B8D013B9AB2FB681A85FB685B8DF1
:1037F8009BB2013B9AB2FB685A8562B600BFFB6870
:103808001B681A69FB685B6AD2B21A70FB685B6A4C
:103818005A1CFB685A62FB681B8D013B9AB2FB6815
:103828001A85FB685B8D9BB2013B9AB2FB685A858F
:1038380042E07A6AB96BF86800F032FB0346002B65
:1038480001D001234CE0FB681B681A69FB685B6ABE
:10385800D2B21A70FB685B6A5A1CFB685A62FB6832
:103868001B8D013B9AB2FB681A85FB685B8D9BB286
:10387800013B9AB2FB685A85FB681B685B6903F0D9
:103888000403042B18D1FB681B681A69FB685B6A80
:10389800D2B21A70FB685B6A5A1CFB685A62FB68F2
:1038A8001B8D013B9AB2FB681A85FB685B8D9BB246
:1038B800013B9AB2FB685A85FB681B8D002B7FF48D
:1038C80094AEFB68202283F83D20FB68002283F831
:1038D8003E20FB68002283F83C20002300E00223FE
:1038E80018462837BD4680BD0400010000000020AE
:1038F80089B5F81480B588B002AFF860084611465B
:103908001A4603467B810B463B811346FB80FB68C6
:103918001B681A68FB681B6842F480721A607B6A2D
:1039280000933B6A00224FF00111F86800F060F93B
:103938000346002B0DD0FB681B681B6803F48073DB
:10394800B3F5807F03D1FB684FF400721A64032338
:103958005FE07B89DBB21A46FB681B6802F0FE0257
:103968001A617B6A3A6A2D49F86800F098F90346AB
:10397800002B01D001234CE000237B61FB681B680E
:103988005B697B61FB681B689B697B617B697A6A01
:10399800396AF86800F002FA0346002B0DD0FB687C
:1039A8001B6C042B07D1FB681B681A68FB681B6833
:1039B80042F400721A6001232BE0FB88012B05D129
:1039C8003B89DAB2FB681B681A6121E03B891B0A54
:1039D8009BB2DAB2FB681B681A617A6A396AF868BE
:1039E80000F0DCF90346002B0DD0FB681B6C042BA0
:1039F80007D1FB681B681A68FB681B6842F40072F1
:103A08001A60012305E03B89DAB2FB681B681A617A
:103A1800002318461837BD4680BD00BF02000100CC
:103A280080B588B002AFF860084611461A460346CA
:103A38007B810B463B811346FB80FB681B681A6839
:103A4800FB681B6842F480621A60FB681B681A688E
:103A5800FB681B6842F480721A607B6A00933B6AB9
:103A680000224FF00111F86800F0C2F80346002B5D
:103A78000DD0FB681B681B6803F48073B3F5807F67
:103A880003D1FB684FF400721A640323AAE07B8910
:103A9800DBB21A46FB681B6802F0FE021A617B6AF9
:103AA8003A6A5249F86800F0FAF80346002B01D048
:103AB800012397E000237B61FB681B685B697B61DE
:103AC800FB681B689B697B617B697A6A396AF8685D
:103AD80000F064F90346002B0DD0FB681B6C042B27
:103AE80007D1FB681B681A68FB681B6842F4007200
:103AF8001A60012376E0FB88012B05D13B89DAB2F5
:103B0800FB681B681A6121E03B891B0A9BB2DAB289
:103B1800FB681B681A617A6A396AF86800F03EF92E
:103B28000346002B0DD0FB681B6C042B07D1FB68E8
:103B38001B681A68FB681B6842F400721A6001234C
:103B480050E03B89DAB2FB681B681A617A6A396A05
:103B5800F86800F023F90346002B0DD0FB681B6CB6
:103B6800042B07D1FB681B681A68FB681B6842F4C2
:103B780000721A60012335E0FB681B681A68FB684D
:103B88001B6842F480721A607B6A00933B6A0022C9
:103B98004FF00111F86800F02BF80346002B0DD008
:103BA800FB681B681B6803F48073B3F5807F03D13F
:103BB800FB684FF400721A64032313E07B89DBB2BD
:103BC80043F00103DAB2FB681B681A617B6A3A6A40
:103BD8000649F86800F063F80346002B01D001237A
:103BE80000E0002318461837BD4680BD02000100DA
:103BF80080B584B000AFF860B9603B601346FB71D4
:103C080025E03B68B3F1FF3F21D0FDF77BFE02467C
:103C1800BB69D31A3A689A4202D33B68002B16D183
:103C2800FB6800221A63FB68202283F83D20FB68AA
:103C3800002283F83E20FB681B6C43F02002FB68DF
:103C48001A64FB68002283F83C20012323E0BB6848
:103C58001B0CDBB2012B0DD1FB681B685B69DA43D7
:103C6800BB6813409BB2002B0CBF01230023DBB2BF
:103C78001A460CE0FB681B689B69DA43BB68134073
:103C88009BB2002B0CBF01230023DBB21A46FB7941
:103C98009A42B6D0002318461037BD4680BD80B57D
:103CA80084B000AFF860B9607A603B6051E0FB68AF
:103CB8001B685B6903F48063B3F5806F23D1FB68ED
:103CC8001B681A68FB681B6842F400721A60FB687C
:103CD8001B686FF480625A61FB6800221A63FB68F4
:103CE800202283F83D20FB68002283F83E20FB68F1
:103CF8001B6C43F00402FB681A64FB68002283F81B
:103D08003C20012346E07B68B3F1FF3F21D0FDF75B
:103D1800F9FD02463B68D31A7A689A4202D37B6857
:103D2800002B16D1FB6800221A63FB68202283F857
:103D38003D20FB68002283F83E20FB681B6C43F0A3
:103D48002002FB681A64FB68002283F83C200123E8
:103D580020E0BB681B0CDBB2012B0CD1FB681B6895
:103D68005B69DA43BB6813409BB2002B14BF012385
:103D78000023DBB20BE0FB681B689B69DA43BB6876
:103D880013409BB2002B14BF01230023DBB2002B8E
:103D98008DD1002318461037BD4680BD80B584B04C
:103DA80000AFF860B9607A602DE0F86800F0CEF8EE
:103DB8000346002B01D001232DE0BB68B3F1FF3F80
:103DC80021D0FDF79FFD02467B68D31ABA689A4254
:103DD80002D3BB68002B16D1FB6800221A63FB686C
:103DE800202283F83D20FB68002283F83E20FB68F0
:103DF8001B6C43F02002FB681A64FB68002283F8FE
:103E08003C20012307E0FB681B685B6903F0800323
:103E1800802BCAD1002318461037BD4680BD80B517
:103E280084B000AFF860B9607A602DE0F86800F0FF
:103E38008DF80346002B01D001232DE0BB68B3F1B8
:103E4800FF3F21D0FDF75EFD02467B68D31ABA68B2
:103E58009A4202D3BB68002B16D1FB6800221A6372
:103E6800FB68202283F83D20FB68002283F83E206F
:103E7800FB681B6C43F02002FB681A64FB68002295
:103E880083F83C20012307E0FB681B685B6903F0AB
:103E98000403042BCAD1002318461037BD4680BD41
:103EA80080B584B000AFF860B9607A6042E0FB6822
:103EB8001B685B6903F01003102B19D1FB681B68A2
:103EC8006FF010025A61FB6800221A63FB68202217
:103ED80083F83D20FB68002283F83E20FB681A6CBB
:103EE800FB681A64FB68002283F83C20012329E060
:103EF800FDF708FD02467B68D31ABA689A4202D3D6
:103F0800BB68002B16D1FB6800221A63FB682022CD
:103F180083F83D20FB68002283F83E20FB681B6C79
:103F280043F02002FB681A64FB68002283F83C20F7
:103F3800012307E0FB681B685B6903F04003402B23
:103F4800B5D1002318461037BD4680BD80B483B074
:103F580000AF78607B681B685B6903F48063B3F526
:103F6800806F1BD17B681B686FF480625A617B6825
:103F780000221A637B68202283F83D207B68002298
:103F880083F83E207B681B6C43F004027B681A644C
:103F98007B68002283F83C20012300E000231846B8
:103FA8000C37BD4680BC704780B586B000AF7860DE
:103FB8007B68002B01D1012304E37B681B6803F0B5
:103FC8000103002B00F08780924B5B6803F00C0321
:103FD800042B0CD08F4B5B6803F00C03082B12D119
:103FE8008C4B5B6803F48033B3F5803F0BD1894B6E
:103FF8001B6803F40033002B6CD07B689B68002B94
:1040080068D10123DEE27B689B68B3F5803F06D167
:10401800804B1B687F4A43F4803313602EE07B6833
:104028009B68002B0CD17B4B1B687A4A23F48033A6
:104038001360784B1B68774A23F4802313601DE0D4
:104048007B689B68B3F5A02F0CD1724B1B68714A33
:1040580043F4802313606F4B1B686E4A43F480332C
:1040680013600BE06B4B1B686A4A23F480331360C0
:10407800684B1B68674A23F4802313607B689B683E
:10408800002B13D0FDF73EFC386108E0FDF73AFC41
:1040980002463B69D31A642B01D9032392E25D4B94
:1040A8001B6803F40033002BF0D014E0FDF72AFC62
:1040B800386108E0FDF726FC02463B69D31A642BF9
:1040C80001D903237EE2534B1B6803F40033002B12
:1040D800F0D100E000BF7B681B6803F00203002BEF
:1040E80063D04C4B5B6803F00C03002B0BD0494B9F
:1040F8005B6803F00C03082B1CD1464B5B6803F488
:104108008033002B16D1434B1B6803F00203002BAE
:1041180005D07B685B69012B01D0012352E23D4B3E
:104128001B6823F0F8027B689B69DB00394913435D
:104138000B603AE07B685B69002B20D0364B01228C
:104148001A60FDF7DFFB386108E0FDF7DBFB02468C
:104158003B69D31A022B01D9032333E22D4B1B6889
:1041680003F00203002BF0D02A4B1B6823F0F8025F
:104178007B689B69DB00274913430B6015E0264BDE
:1041880000221A60FDF7BEFB386108E0FDF7BAFBB4
:1041980002463B69D31A022B01D9032312E21D4BB5
:1041A8001B6803F00203002BF0D17B681B6803F047
:1041B8000803002B3AD07B68DB69002B19D0174B1A
:1041C80001221A60FDF79EFB386108E0FDF79AFBB3
:1041D80002463B69D31A022B01D90323F2E10D4BA6
:1041E8005B6A03F00203002BF0D0012000F0B6FB5D
:1041F8001CE00A4B00221A60FDF784FB38610FE0CF
:10420800FDF780FB02463B69D31A022B08D903232A
:10421800D8E100BF00100240000042428004424240
:104228009B4B5B6A03F00203002BE9D17B681B6898
:1042380003F00403002B00F0A6800023FB75944BC9
:10424800DB6903F08053002B0DD1914BDB69904A59
:1042580043F08053D3618E4BDB6903F08053BB601E
:10426800BB680123FB758B4B1B6803F48073002B21
:1042780018D1884B1B68874A43F480731360FDF795
:1042880041FB386108E0FDF73DFB02463B69D31A64
:10429800642B01D9032395E17E4B1B6803F48073DB
:1042A800002BF0D07B681B69012B06D1784B1B6A69
:1042B800774A43F0010313622DE07B681B69002BEA
:1042C8000CD1734B1B6A724A23F001031362704BC3
:1042D8001B6A6F4A23F0040313621CE07B681B69A6
:1042E800052B0CD16A4B1B6A694A43F0040313621D
:1042F800674B1B6A664A43F0010313620BE0644B89
:104308001B6A634A23F001031362614B1B6A604A0C
:1043180023F0040313627B681B69002B15D0FDF79B
:10432800F1FA38610AE0FDF7EDFA02463B69D31A63
:1043380041F28832934201D9032343E1544B1B6A6B
:1043480003F00203002BEED014E0FDF7DBFA38612E
:104358000AE0FDF7D7FA02463B69D31A41F28832E0
:10436800934201D903232DE1494B1B6A03F0020351
:10437800002BEED1FB7D012B05D1454BDB69444A6F
:1043880023F08053D3617B68DB6A002B00F08C80BC
:104398003F4B5B6803F48033B3F5803F0ED13C4B51
:1043A8005B6803F00C03082B08D1394BDB6A03F474
:1043B8008033B3F5803F01D1012303E17B68DB6AD9
:1043C800022B4ED1324B1B6803F08053002B09D0CF
:1043D8002F4BDB6A03F0F0027B685B6B9A4201D0DB
:1043E8000123EFE02C4B00221A60FDF78BFA3861AD
:1043F80008E0FDF787FA02463B69D31A642B01D916
:104408000323DFE0224B1B6803F00063002BF0D18D
:104418001F4BDB6A23F0F0027B685B6B1C4913437C
:10442800CB621B4BDB6A23F470627B681B6B1849F9
:104438001343CB62184B01221A60FDF763FA386107
:1044480008E0FDF75FFA02463B69D31A642B01D9ED
:104458000323B7E00E4B1B6803F00063002BF0D07A
:1044680022E00B4BDB6A0A4A23F48033D3620A4BFF
:1044780000221A60FDF746FA38610FE0FDF742FAAC
:1044880002463B69D31A642B08D903239AE000BF7C
:104498000010024000700040680042424B4B1B680D
:1044A80003F00063002BE9D17B681B6A002B00F046
:1044B8008880464B5B6803F00C03082B68D07B6848
:1044C8001B6A022B4DD1424B00221A60FDF71AFAE3
:1044D800386108E0FDF716FA02463B69D31A022B49
:1044E80001D903236EE0394B1B6803F00073002BDE
:1044F800F0D17B685B6AB3F5803F0FD1334BDA6A42
:104508007B685B6831491343CB62304BDB6A23F02D
:104518000F027B68DB682D491343CB622B4B5B682A
:1045280023F474127B68596A7B689B6A0B4327499A
:1045380013434B60264B01221A60FDF7E3F93861FB
:1045480008E0FDF7DFF902463B69D31A022B01D9CF
:10455800032337E01D4B1B6803F00073002BF0D0DA
:104568002FE01B4B00221A60FDF7CCF9386108E0F8
:10457800FDF7C8F902463B69D31A022B01D9032378
:1045880020E0124B1B6803F00073002BF0D118E0F9
:104598007B681B6A012B01D1012313E00B4B5B687D
:1045A800FB60FB6803F480327B685B6A9A4206D141
:1045B800FB6803F470127B689B6A9A4201D001235E
:1045C80000E0002318461837BD4680BD00100240A1
:1045D8006000424280B584B000AF786039607B6883
:1045E800002B01D10123D0E06A4B1B6803F00703BD
:1045F8003A689A4210D9674B1B6823F0070265494D
:104608003B6813430B60634B1B6803F007033A686E
:104618009A4201D00123B8E07B681B6803F00203CB
:10462800002B20D07B681B6803F00403002B05D007
:10463800594B5B68584A43F4E06353607B681B68D6
:1046480003F00803002B05D0534B5B68524A43F430
:1046580060535360504B5B6823F0F0027B689B68A3
:104668004D4913434B607B681B6803F00103002B23
:1046780040D07B685B68012B07D1474B1B6803F46C
:104688000033002B15D101237FE07B685B68022B88
:1046980007D1414B1B6803F00073002B09D101239C
:1046A80073E03D4B1B6803F00203002B01D101238B
:1046B8006BE0394B5B6823F003027B685B68364923
:1046C80013434B60FDF71EF9F8600AE0FDF71AF98D
:1046D8000246FB68D31A41F28832934201D9032378
:1046E80053E02D4B5B6803F00C027B685B689B0012
:1046F8009A42EBD1274B1B6803F007033A689A42AA
:1047080010D2244B1B6823F0070222493B6813434D
:104718000B60204B1B6803F007033A689A4201D0EC
:10472800012332E07B681B6803F00403002B08D0E8
:10473800194B5B6823F4E0627B68DB681649134316
:104748004B607B681B6803F00803002B09D0124BF1
:104758005B6823F460527B681B69DB000E491343D6
:104768004B6000F021F802460B4B5B681B0903F015
:104778000F030A49CB5C22FA03F3094A1360094B79
:104788001B681846FDF77CF8002318461037BD460D
:1047980080BD00BF002002400010024014590008EC
:1047A8000000002004000020F0B591B000AF564B87
:1047B80007F114040FCB07C42380544B3C1D0FCBC7
:1047C80084E80F0000237B6300233B630023FB6323
:1047D8000023FB620023BB630023BB6200237B62D0
:1047E8004B4B5B687B637B6B03F00C03042B02D0A1
:1047F800082B03D080E0474BBB6380E07B6B9B0CAE
:1048080003F00F0307F14002134413F82C3CFB623A
:104818007B6B03F48033002B66D03D4BDB6A03F0DF
:104828000F0307F14002134413F83C3C3B63384B39
:10483800DB6A03F48033002B44D0354BDB6A1B0959
:1048480003F00F030133BB62314BDB6A1B0A03F031
:104858000F0302337B627B6A18464FF00001FB6A44
:104868001A464FF0000302FB01F500FB03F42C4449
:10487800A0FB0223E1180B46264901FB03F00021A7
:1048880001FB02F101442348A2FB00454B191D46D8
:10489800BB6A18464FF000013B6B1A464FF0000305
:1048A80002FB01FC00FB03F66644A0FB0223F1189F
:1048B8000B4620462946FBF7B3FC02460B46134637
:1048C800FB6307E0FB6A134A02FB03F23B6BB2FB94
:1048D800F3F3FB6397F821301A46FB6A934208D139
:1048E800FB6B5B08FB6304E0FB6A0B4A02FB03F308
:1048F800FB63FB6BBB6302E0084BBB6300BFBB6B96
:1049080018464437BD46F0BDF4580008045900085D
:104918000010024040787D0100093D0000127A0035
:1049280080B400AF024B1B681846BD4680BC704778
:104938000000002080B500AFFFF7F2FF0246054BEC
:104948005B681B0A03F007030349CB5C22FA03F3F5
:10495800184680BD001002402459000880B485B074
:1049680000AF78600A4B1B680A4AA2FB03235B0A64
:104978007A6802FB03F3FB6000BFFB685A1EFA600B
:10498800002BF9D100BF00BF1437BD4680BC70476B
:1049980000000020D34D6210014B1868704700BF1B
:1049A8000C00002070B500260C4D0D4C641BA410A3
:1049B800A64209D100F082FF00260A4D0A4C641B6A
:1049C800A410A64205D170BD55F8043B984701369E
:1049D800EEE755F8043B98470136F2E7CC59000852
:1049E800CC590008CC590008D059000803460244A5
:1049F800934200D1704703F8011BF9E70FB40A4B43
:104A080013B51C6824B1A36913B9204600F066F8F1
:104A180005AB2046049AA168019300F081F902B021
:104A2800BDE8104004B070470C000020002310B50A
:104A38000446C0E90033C0E90433836081814366DA
:104A4800C2818361194608225C30FFF7CFFF054B0E
:104A580024626362044BA362044BE362044B236346
:104A680010BD00BFD5520008F75200082F530008A8
:104A780053530008014900F0AFB800BF2D56000895
:104A880070B568254A1E55430E4605F1740100F0BD
:104A9800C5F8044640B10021C0E900160C30A060FA
:104AA80005F16802FFF7A2FF204670BD014800F03B
:104AB800B3B800BF78020020014800F0AEB800BFCC
:104AC80078020020014800F0A7B800BF7302002058
:104AD800014800F0A2B800BF7302002010B50446D8
:104AE800FFF7F0FFA3691BB1BDE81040FFF7F0BF67
:104AF800C4E912332365134B134A1B68A262A3420D
:104B080008BF0123204608BFA36100F01FF86060BA
:104B1800204600F01BF8A060204600F017F800229D
:104B28000421E0606068FFF781FF01220921A06885
:104B3800FFF77CFF02221221E068FFF777FF0123CD
:104B4800A361D1E72C5900087D4A0008F8B507464B
:104B5800FFF7ACFF1E4B1E68B36913B93046FFF769
:104B6800BDFF4836D6E90134013B03D533680BB3A2
:104B78003668F7E7B4F90C50D5B9164B04F158006C
:104B8800E360656600F047F8FFF796FF08222946BC
:104B9800C4E90155C4E904552560A56104F15C0028
:104BA800FFF724FFC4E90D55C4E912552046F8BDA6
:104BB8006834D9E704213846FFF762FF04463060BD
:104BC8000028D5D1FFF778FF0C233B60EEE700BF44
:104BD8002C5900080100FFFF2DE9F84306468846D6
:104BE800002700F14804D4E90195B9F1010905D578
:104BF8002468002CF7D13846BDE8F883AB89012B2F
:104C080007D9B5F90E30013303D029463046C047DD
:104C180007436835E9E7704770477047F8B5CD1C1A
:104C280025F0030508350C2D38BF0C25002D064648
:104C380001DBA94203D90C2333600020F8BD00F042
:104C4800B1FD21490A6814469CB9204F3B6823B935
:104C58002146304600F02AFB38602946304600F0ED
:104C680025FB431C23D10C233046336000F0A0FD04
:104C7800E3E723685B1B17D40B2B03D923601C4481
:104C8800256004E06368A2420CBF0B6053603046A5
:104C980000F08EFD04F10B00231D20F00700C21A5E
:104CA800CCD01B1AA350C9E722466468CCE7C41CC1
:104CB80024F00304A042E3D0211A304600F0F6FAAB
:104CC8000130DDD1CFE700BFB0000020B4000020E4
:104CD800936810B4013B002B936007DA9469A342F0
:104CE80001DB0A2902D110BC00F034BB1368581C40
:104CF80010601970084610BC7047F8B506460F4694
:104D08001446D518AC4201D1002007E03A46304697
:104D180014F8011BFFF7DCFF431CF3D1F8BD0000BA
:104D28002DE9F04F0D461446984606469DB018B139
:104D380083690BB9FFF7D2FE894B9D421BD1756879
:104D48006B6ED90705D4AB899A0502D4A86DFFF715
:104D580063FFAB891B0701D52B69EBB929463046A0
:104D680000F05CFBC0B16B6EDC070ED54FF0FF3076
:104D78001DB0BDE8F08F7B4B9D4201D1B568DFE7E0
:104D8800794B9D4208BFF568DAE7AB899805EDD401
:104D9800A86DFFF742FFE9E70023099320238DF868
:104DA800293030234FF00109CDF80C80DFF8BC81A1
:104DB8008DF82A3023469A4613F8012B0AB1252A82
:104DC800F9D1BAEB040B0BD05B4622462946304694
:104DD800FFF793FF013000F0AA80099A5A4409921C
:104DE8009AF80030002B00F0A28000234FF0FF3229
:104DF800CDE905230AF1010A049307938DF853308E
:104E08001A935446052214F8011B584800F0BCFCBC
:104E1800049AD8B9D10644BF20238DF8533013071C
:104E280044BF2B238DF853309AF800302A2B15D025
:104E3800544600204FF00A0C079A214611F8013B0E
:104E4800303B092B4ED9B0B1079214E0A0EB080310
:104E580009FA03F31343A2460493D2E7039B191DEF
:104E68001B680391002BBBBF5B4242F00202079311
:104E78000793B8BF049223782E2B0CD163782A2B82
:104E880035D1039B02341A1D1B680392002BB8BF4F
:104E98004FF0FF330593DFF8E4A003225046217852
:104EA80000F072FC40B14023A0EB0A0003FA00F0C6
:104EB800049B01340343049314F8011B06222C4875
:104EC8008DF8281000F060FC00283FD0294B1BBB50
:104ED800039B073323F0070308330393099B3B44E1
:104EE800099367E70C4601200CFB0232A5E7002373
:104EF8004FF00A0C194601340593204610F8012B8F
:104F0800303A092A03D9002BC5D00591C3E70446D6
:104F180001230CFB0121F0E703AB00932A4630463E
:104F2800154B04A9AFF300800746781CD6D16B6EE9
:104F3800D90705D4AB899A0502D4A86DFFF76DFE91
:104F4800AB895B063FF512AF099811E703AB0093F5
:104F58002A463046084B04A900F082F8E4E700BF6F
:104F68005059000870590008305900089059000835
:104F78009A59000800000000034D000896590008DF
:104F88002DE9F047164699468A680B690746934209
:104F9800B8BF1346336091F843200C46DDF82080F3
:104FA8000AB1013333602368990642BF336802337C
:104FB8003360256815F0060506D104F1190AE3687F
:104FC80032689B1AAB4228DC94F84320131E2268EF
:104FD80018BF012392062DD44946384604F14302EE
:104FE800C047013020D02368E56803F00603042B8E
:104FF80018BF002532684FF00006A36808BFAD1A35
:10500800226908BF25EAE5759342C4BF9B1AED18CB
:105018001A34B5421AD1002008E001235246494605
:105028003846C047013003D14FF0FF30BDE8F08764
:105038000135C4E73020E11881F843005A1C94F880
:1050480045102244023382F84310C5E70123224663
:1050580049463846C0470130E6D00136D9E7000056
:105068002DE9FF470C46277E9146782F80469A46C1
:105078000C9904F1430207D8622F0AD8002F00F0D8
:10508800D980582F00F0A48004F1420684F84270B9
:105098003AE0A7F16303152BF6D801A050F823F0E6
:1050A800015100081551000891500008915000085E
:1050B80091500008915000081551000891500008BF
:1050C80091500008915000089150000823520008A0
:1050D80045510008055200089150000891500008F9
:1050E80045520008915000084551000891500008A9
:1050F800915000080D5200080B6804F142061A1D71
:105108001B680A6084F842300123A4E02568086817
:105118002E0600F104030AD505680B60002D03DA9A
:105128002D236D4284F843300A235E4819E015F0B8
:10513800400F05680B6018BF2DB2EFE70B682568B4
:10514800181D0860280601D51D6802E06906FBD510
:105158001D886F2F0CBF08230A235248002184F8AA
:1051680043106668002EA8BF2168A660A4BF21F07E
:10517800040121600DB9002E4DD01646B5FBF3F1A0
:1051880003FB1157C75D06F8017D2F46BB420D464C
:10519800F4D9082B0BD12368DF0708D52369616888
:1051A8009942DEBF302306F8013C06F1FF36921B18
:1051B80022614B4621464046CDF800A003AAFFF7DE
:1051C800DFFE01304CD14FF0FF3004B0BDE8F0876E
:1051D800344884F845700E68236856F8045B1F0647
:1051E8000E6014D5D90744BF43F0200323601DB9CE
:1051F800236823F0200323601023AFE7236843F0DC
:10520800200323607823284884F84530E3E75E06C6
:1052180048BFADB2E6E71646BBE70B6826681D1D1A
:1052280060690D6035061B6801D5186002E07106DB
:10523800FBD51880002316462361BAE70B681A1DB0
:105248000A601E6800213046626800F09DFA08B1C5
:10525800801B606063682361002384F84330A8E7FB
:105268003246494640462369D0470130ABD02368CF
:105278009B0713D4E068039B9842B8BF1846A4E77D
:105288000123324649464046D04701309BD001357C
:10529800E36803995B1AAB42F2DCEBE7002504F103
:1052A8001906F5E7A1590008B259000838B50023D6
:1052B800054D044608462B60FCF76AFA431C02D1E8
:1052C8002B6803B1236038BD7C02002010B50C4662
:1052D800B1F90E1000F0BEFA0028ABBF636DA389C8
:1052E8001B1823F48053ACBF6365A38110BD2DE95F
:1052F800F0411F468B890546DB050C46164605D549
:1053080002230022B1F90E1000F0C8F9A389324631
:1053180023F48053A38128463B46B4F90E10BDE818
:10532800F04100F069B810B50C46B1F90E1000F064
:10533800B5F9431CA38915BF606523F4805343F472
:105348008053A38118BFA38110BDB1F90E1000F0DE
:10535800D3B80000F8B50E461446054618B183695F
:105368000BB9FFF7BBFB214B9C422BD16C68A3699F
:10537800A360A3891A072FD523696BB32369206813
:10538800F6B2C01A63693746834204DC21462846D0
:1053980000F048F930BBA3680130013BA3602368E3
:1053A8005A1C22601E706369834204D0A389DB07FC
:1053B80006D50A2E04D12146284600F033F988B9CB
:1053C8003846F8BD0A4B9C4201D1AC68CFE7094B7F
:1053D8009C4208BFEC68CAE72146284600F01EF840
:1053E8000028CBD04FF0FF37EAE700BF505900083C
:1053F800705900083059000838B504460846114667
:105408000022054D2A601A46FCF775F9431C02D1A3
:105418002B6803B1236038BD7C020020324B70B585
:105428001D6806460C4625B1AB6913B92846FFF737
:1054380055FB2E4B9C420FD16C68A389B4F90C2004
:1054480019072CD4DD0611D40923336042F0400338
:105458004FF0FF30A3813EE0254B9C4201D1AC6860
:10546800EBE7244B9C4208BFEC68E6E7580712D5E7
:10547800616B41B104F14403994202D0304600F017
:105488009DF900236363A38923F02403A3810023E8
:10549800636023692360A38943F00803A381236918
:1054A8004BB9A38903F42073B3F5007F03D02146D9
:1054B800304600F029F9A089B4F90C2010F0010356
:1054C8000AD00023A36063695B42A361236943B9DF
:1054D80010F08000BAD170BD810758BF6369A3601E
:1054E800F4E70020F7E700BF0C000020505900083F
:1054F800705900083059000838B50023054D044696
:1055080008462B60FCF713F9431C02D12B6803B142
:10551800236038BD7C0200208A892DE9F0410546C8
:1055280010070C4658D44B68002B05DC0B6C002B7D
:1055380002DC0020BDE8F081E66A002EF9D00023E5
:1055480012F480522F682B6032D0606DA3895A07FD
:1055580005D56368C01A636B0BB1236CC01A0023AE
:105568000246E66A2846216AB047431CA38906D149
:1055780029681D292CD82A4ACA40D60728D50022CE
:1055880062602269D904226004D5421C01D12B68CB
:1055980003B96065616B2F600029CAD004F1440328
:1055A800994202D0284600F009F900206063C1E75B
:1055B800216A01232846B047411CC7D12B68002B1C
:1055C800C4D01D2B01D0162B01D12F60B1E7A389C0
:1055D80043F04003A381ADE70F69002FA9D09307DB
:1055E80018BF00230E6808BF4B69A6EB07080F60B9
:1055F8008B60B8F1000F9CDD43463A462846216A85
:10560800A66AB047002806DCA3894FF0FF3043F0B4
:105618004003A3818EE70744A8EB0008E9E700BF31
:105628000100402038B50B6905460C4613B9002522
:10563800284638BD18B183690BB9FFF74FFA144BE8
:105648009C421BD16C68B4F90C30002BEFD0626E11
:10565800D00704D4990502D4A06DFFF7DDFA2846D7
:105668002146FFF759FF636E0546DA07E0D4A389A0
:105678009B05DDD4A06DFFF7D0FAD9E7054B9C4216
:1056880001D1AC68DFE7044B9C4208BFEC68DAE75D
:1056980050590008705900083059000838B50446B8
:1056A800084611460022054D2A601A46FCF763F8A1
:1056B800431C02D12B6803B1236038BD7C02002053
:1056C80070B50E46B1F90E10144600291D4696B065
:1056D80007DA00232B60B3891A0610D44FF48063CD
:1056E8000EE06A4600F0C8F80028F2DB019A02F4DE
:1056F8007042A2F500535A425A412A60EEE740230D
:105708000020236016B070BD8B8973B59D070646CF
:105718000C4607D504F14703236023610123636125
:1057280002B070BD6A4601ABFFF7CAFF0099054693
:105738003046FFF773FA48B9B4F90C309A05EFD43C
:1057480023F0030343F00203A381E3E70D4BB362A5
:10575800A389206043F08003A381009B20616361DB
:10576800019B5BB13046B4F90E1000F097F828B1F0
:10577800A38923F0030343F00103A381A089054310
:10578800A581CDE77D4A0008034610B5C9B2024499
:105798009342184601D1002003E0047801338C427B
:1057A800F6D110BD0148FFF737BA00BF74020020D8
:1057B8000148FFF732BA00BF7402002038B5054629
:1057C800002943D051F8043C0C1F002BB8BFE41843
:1057D800FFF7E8FF1E4A1368104633B96360146088
:1057E8002846BDE83840FFF7E3BFA3420AD921683D
:1057F8006218934201BF1A685B685218226063609E
:105808000460EDE71A465B680BB1A342FAD9116848
:105818005018A0420BD120680144501883421160EF
:10582800DED118685B68014411605360D8E702D97B
:105838000C232B60D4E7206821188B4201BF19681C
:105848005B680918216063605460C9E738BD00BF10
:10585800B000002038B50446084611460022054D20
:105868002A601A46FBF72AFF431C02D12B6803B1B2
:10587800236038BD7C02002038B50023064D04465D
:10588800084611462B60FBF75DFF431C02D12B68CD
:1058980003B1236038BD00BF7C02002038B5002367
:1058A800054D044608462B60FBF75BFF431C02D1FD
:1058B8002B6803B1236038BD7C020020F8B500BF17
:1058C800F8BC08BC9E467047F8B500BFF8BC08BCD9
:0458D8009E46704731
:1058DC0070656E64696E672063616E310000000054
:1058EC006572726F7200000000000405060708095B
:1058FC0000000000000D000001020304050607086B
:10590C00090A0B0C0D0E0F10000000000000000027
:10591C000102030406070809000000000102030449
:10592C00100000200000000000000000000000003B
:10593C00000000000000000000000000000000005B
:10594C00000000000000000000000000000000004B
:10595C00000000000000000000000000000000003B
:10596C00000000000000000000000000000000002B
:10597C00000000000000000000000000000000001B
:10598C0000000000232D302B2000686C4C00656655
:10599C006745464700303132333435363738394174
:1059AC00424344454600303132333435363738398A
:0859BC0061626364656600008E
:0859C40094A8FF7F0100000020
:0459CC000D020008C0
:0459D000E9010008E1
:1059D4000024F4001000000001000000100000206A
:1059E40000000000505900087059000830590008A0
:1059F40000000000000000000000000000000000A3
:105A04000000000000000000000000000000000092
:105A14000000000000000000000000000000000082
:105A24000000000000000000000000000000000072
:105A34000000000000000000000000000000000062
:0400000508001811C6
:00000001FF
