:020000040800F2
:1000000000000120A5260008F1240008F7240008BC
:10001000FD24000803250008092500080000000051
:100020000000000000000000000000000F25000894
:100030001B250008000000002725000833250008C4
:10004000ED260008ED260008ED260008ED26000844
:10005000ED260008ED260008ED260008ED26000834
:10006000ED260008ED260008ED260008ED26000824
:10007000ED260008ED260008ED260008ED26000814
:10008000ED260008ED260008ED26000841250008B1
:1000900055250008692500087D250008ED26000883
:1000A000ED260008ED260008ED260008ED260008E4
:1000B000ED260008ED260008ED260008ED260008D4
:1000C000ED260008ED260008ED260008ED260008C4
:1000D000ED260008ED260008ED260008ED260008B4
:1000E000ED260008ED260008ED26000800000000BF
:1000F0000000000000000000000000000000000000
:100100000000000000000000ED260008ED260008B9
:10011000ED260008ED260008ED260008ED26000873
:10012000ED260008ED260008ED260008ED26000863
:10013000ED2600080000000000000000ED26000889
:10014000ED260008ED260008ED260008ED26000843
:10015000000000000000000000000000000000009F
:10016000000000000000000000000000000000008F
:10017000000000000000000000000000000000007F
:10018000000000000000000000000000000000006F
:10019000000000000000000000000000000000005F
:1001A000000000000000000000000000000000004F
:1001B000000000000000000000000000000000003F
:1001C000000000000000000000000000000000002F
:1001D000000000000000000000000000000000001F
:0401E0005FF8E0F1F3
:1001E80010B5054C237833B9044B13B10448AFF369
:1001F80000800123237010BD1001002000000000C2
:10020800BC6B000808B5034B1BB103490348AFF3A7
:10021800008008BD0000000014010020BC6B00082D
:1002280081F0004102E000BF83F0004330B54FEA9F
:1002380041044FEA430594EA050F08BF90EA020F0C
:100248001FBF54EA000C55EA020C7FEA645C7FEA9F
:10025800655C00F0E2804FEA5454D4EB5555B8BFC2
:100268006D420CDD2C4480EA020281EA030382EA33
:10027800000083EA010180EA020281EA0303362DC5
:1002880088BF30BD11F0004F4FEA01314FF4801C98
:100298004CEA113102D0404261EB410113F0004FAA
:1002A8004FEA03334CEA133302D0524263EB430361
:1002B80094EA050F00F0A780A4F10104D5F1200EFF
:1002C8000DDB02FA0EFC22FA05F2801841F100015A
:1002D80003FA0EF2801843FA05F359410EE0A5F12E
:1002E80020050EF1200E012A03FA0EFC28BF4CF05F
:1002F800020C43FA05F3C01851EBE37101F0004515
:1003080007D54FF0000EDCF1000C7EEB00006EEB21
:100318000101B1F5801F1BD3B1F5001F0CD34908AB
:100328005FEA30004FEA3C0C04F101044FEA445202
:1003380012F5800F80F09A80BCF1004F08BF5FEA89
:10034800500C50F1000041EB045141EA050130BD69
:100358005FEA4C0C404141EB0101013C28BFB1F57B
:10036800801FE9D291F0000F04BF01460020B1FAC6
:1003780081F308BF2033A3F10B03B3F120020CDA99
:100388000C3208DD02F1140CC2F10C0201FA0CF077
:1003980021FA02F10CE002F11402D8BFC2F1200CDC
:1003A80001FA02F120FA0CFCDCBF41EA0C01904092
:1003B800E41AA2BF01EB0451294330BD6FEA0404DB
:1003C8001F3C1CDA0C340EDC04F11404C4F12002C6
:1003D80020FA04F001FA02F340EA030021FA04F3D8
:1003E80045EA030130BDC4F10C04C4F1200220FA2F
:1003F80002F001FA04F340EA0300294630BD21FA6D
:1004080004F0294630BD94F0000F83F4801306BF32
:1004180081F480110134013D4EE77FEA645C18BF26
:100428007FEA655C29D094EA050F08BF90EA020FBD
:1004380005D054EA000C04BF1946104630BD91EAB5
:10044800030F1EBF0021002030BD5FEA545C05D1B8
:100458004000494128BF41F0004130BD14F58004F7
:100468003CBF01F5801130BD01F0004545F0FE416B
:1004780041F470014FF0000030BD7FEA645C1ABFA0
:10048800194610467FEA655C1CBF0B46024650EAD7
:10049800013406BF52EA033591EA030F41F4002103
:1004A80030BD00BF90F0000F04BF0021704730B589
:1004B8004FF4806404F132044FF000054FF000015E
:1004C80050E700BF90F0000F04BF0021704730B51F
:1004D8004FF4806404F1320410F0004548BF4042F4
:1004E8004FF000013EE700BF42004FEAE2014FEA49
:1004F80031014FEA02701FBF12F07F4393F07F4F24
:1005080081F06051704732F07F4208BF704793F026
:100518007F4F04BF41F40021704730B54FF4607439
:1005280001F0004521F000411CE700BF50EA01023C
:1005380008BF704730B54FF000050AE050EA0102E5
:1005480008BF704730B511F0004502D5404261EB55
:1005580041014FF4806404F132045FEA915C3FF496
:10056800D8AE4FF003025FEADC0C18BF03325FEA33
:10057800DC0C18BF033202EBDC02C2F1200300FAE4
:1005880003FC20FA02F001FA03FE40EA0E0021FA09
:1005980002F11444BDE600BF70B54FF0FF0C4CF4F7
:1005A800E06C1CEA11541DBF1CEA135594EA0C0FA9
:1005B80095EA0C0F00F0DEF82C4481EA030621EAE4
:1005C8004C5123EA4C5350EA013518BF52EA03351F
:1005D80041F4801143F4801338D0A0FB02CE4FF0D1
:1005E8000005E1FB02E506F00042E0FB03E54FF001
:1005F8000006E1FB03569CF0000F18BF4EF0010EF9
:10060800A4F1FF04B6F5007F64F5407404D25FEAF4
:100618004E0E6D4146EB060642EAC62141EA5551A7
:100628004FEAC52040EA5E504FEACE2EB4F1FD0CE9
:1006380088BFBCF5E06F1ED8BEF1004F08BF5FEA67
:10064800500E50F1000041EB045170BD06F0004619
:1006580046EA010140EA020081EA0301B4EB5C04C6
:10066800C2BFD4EB0C0541EA045170BD41F48011BE
:100678004FF0000E013C00F3AB8014F1360FDEBFE3
:10068800002001F0004170BDC4F10004203C35DABF
:100698000C341BDC04F11404C4F1200500FA05F342
:1006A80020FA04F001FA05F240EA020001F00042E3
:1006B80021F0004110EBD37021FA04F642EB060159
:1006C8005EEA430E08BF20EAD37070BDC4F10C0483
:1006D800C4F1200500FA04F320FA05F001FA04F247
:1006E80040EA020001F0004110EBD37041F1000133
:1006F8005EEA430E08BF20EAD37070BDC4F120053E
:1007080000FA05F24EEA020E20FA04F301FA05F2A5
:1007180043EA020321FA04F001F0004121FA04F24D
:1007280020EA020000EBD3705EEA430E08BF20EA1D
:10073800D37070BD94F0000F0FD101F00046400057
:1007480041EB010111F4801F08BF013CF7D041EAD9
:10075800060195F0000F18BF704703F000465200DD
:1007680043EB030313F4801F08BF013DF7D043EAAE
:100778000603704794EA0C0F0CEA135518BF95EA64
:100788000C0F0CD050EA410618BF52EA4306D1D1EB
:1007980081EA030101F000414FF0000070BD50EA0A
:1007A800410606BF1046194652EA430619D094EA94
:1007B8000C0F02D150EA013613D195EA0C0F05D17E
:1007C80052EA03361CBF104619460AD181EA0301D2
:1007D80001F0004141F0FE4141F470014FF000008A
:1007E80070BD41F0FE4141F4780170BD70B54FF025
:1007F800FF0C4CF4E06C1CEA11541DBF1CEA1355A5
:1008080094EA0C0F95EA0C0F00F0A7F8A4EB050486
:1008180081EA030E52EA03354FEA013100F088807D
:100828004FEA03334FF0805545EA131343EA126346
:100838004FEA022245EA111545EA10654FEA0026FB
:100848000EF000419D4208BF964244F1FD0404F5B4
:10085800407402D25B084FEA3202B61A65EB030510
:100868005B084FEA32024FF480104FF4002CB6EBCD
:10087800020E75EB030E22BFB61A754640EA0C004D
:100888005B084FEA3202B6EB020E75EB030E22BF8D
:10089800B61A754640EA5C005B084FEA3202B6EBCE
:1008A800020E75EB030E22BFB61A754640EA9C008D
:1008B8005B084FEA3202B6EB020E75EB030E22BF5D
:1008C800B61A754640EADC0055EA060E18D04FEA1B
:1008D800051545EA16754FEA06164FEAC30343EABB
:1008E80052734FEAC2025FEA1C1CC0D111F4801F88
:1008F8000BD141EA00014FF000004FF0004CB6E781
:1009080011F4801F04BF01430020B4F1FD0C88BF1F
:10091800BCF5E06F3FF6AFAEB5EB030C04BFB6EB2A
:10092800020C5FEA500C50F1000041EB045170BD1D
:100938000EF0004E4EEA113114EB5C04C2BFD4EB4A
:100948000C0541EA045170BD41F480114FF0000ECE
:10095800013C90E645EA060E8DE60CEA135594EA4A
:100968000C0F08BF95EA0C0F3FF43BAF94EA0C0F4D
:100978000AD150EA01347FF434AF95EA0C0F7FF4C2
:1009880025AF104619462CE795EA0C0F06D152EA16
:1009980003353FF4FDAE1046194622E750EA4106FA
:1009A80018BF52EA43067FF4C5AE50EA41047FF40B
:1009B8000DAF52EA43057FF4EBAE12E74FF0FF3C70
:1009C80006E000BF4FF0010C02E000BF4FF0010C41
:1009D8004DF804CD4FEA410C7FEA6C5C4FEA430CBA
:1009E80018BF7FEA6C5C1BD001B050EA410C0CBF09
:1009F80052EA430C91EA030F02BF90EA020F00206B
:100A0800704710F1000F91EA030F58BF994208BFD1
:100A180090422CBFD8176FEAE37040F0010070478E
:100A28004FEA410C7FEA6C5C02D150EA013C07D1E5
:100A38004FEA430C7FEA6C5CD6D152EA033CD3D030
:100A48005DF8040B704700BF8446104662468C462A
:100A58001946634600E000BF01B5FFF7B7FF00285D
:100A680048BF10F1000F01BD4DF808EDFFF7F4FF86
:100A78000CBF012000205DF808FB00BF4DF808ED11
:100A8800FFF7EAFF34BF012000205DF808FB00BF34
:100A98004DF808EDFFF7E0FF94BF012000205DF856
:100AA80008FB00BF4DF808EDFFF7CEFF94BF01200B
:100AB80000205DF808FB00BF4DF808EDFFF7C4FF04
:100AC80034BF012000205DF808FB00BF4FEA410C4D
:100AD8007FEA6C5C02D150EA013C0AD14FEA430C30
:100AE8007FEA6C5C02D152EA033C02D14FF000006D
:100AF80070474FF0010070474FEA410212F50012AB
:100B080015D211D56FF47873B3EB625212D94FEA4C
:100B1800C12343F0004343EA505311F0004F23FA36
:100B280002F018BF404270474FF00000704750EA8B
:100B3800013005D111F0004008BF6FF00040704748
:100B48004FF00000704700BF80F0004002E000BF97
:100B580081F0004142001FBF5FEA410392EA030FA0
:100B68007FEA226C7FEA236C6AD04FEA1262D2EBEA
:100B78001363C1BFD218414048404140B8BF5B42EF
:100B8800192B88BF704710F0004F40F4000020F088
:100B98007F4018BF404211F0004F41F4000121F09E
:100BA8007F4118BF494292EA030F3FD0A2F10102E8
:100BB80041FA03FC10EB0C00C3F1200301FA03F126
:100BC80000F0004302D5494260EB4000B0F5000F49
:100BD80013D3B0F1807F06D340084FEA310102F108
:100BE8000102FE2A51D2B1F1004F40EBC25008BFBA
:100BF80020F0010040EA03007047490040EB000084
:100C0800013A28BFB0F5000FEDD2B0FA80FCACF184
:100C1800080CB2EB0C0200FA0CF0AABF00EBC250B1
:100C280052421843BCBFD0401843704792F0000F9F
:100C380081F4000106BF80F400000132013BB5E7F2
:100C48004FEA41037FEA226C18BF7FEA236C21D068
:100C580092EA030F04D092F0000F08BF08467047CD
:100C680090EA010F1CBF0020704712F07F4F04D19B
:100C7800400028BF40F00040704712F100723CBFAE
:100C880000F50000704700F0004343F0FE4040F4D8
:100C9800000070477FEA226216BF08467FEA236396
:100CA8000146420206BF5FEA412390EA010F40F481
:100CB800800070474FF0000304E000BF10F00043CD
:100CC80048BF40425FEA000C08BF704743F09643B4
:100CD80001464FF000001CE050EA010208BF7047CF
:100CE8004FF000030AE000BF50EA010208BF704756
:100CF80011F0004302D5404261EB41015FEA010C6B
:100D080002BF84460146002043F0B64308BFA3F162
:100D18008053A3F50003BCFA8CF2083AA3EBC25344
:100D280010DB01FA02FC634400FA02FCC2F1200263
:100D3800BCF1004F20FA02F243EB020008BF20F09A
:100D48000100704702F1200201FA02FCC2F1200200
:100D580050EA4C0021FA02F243EB020008BF20EAF5
:100D6800DC7070474FF0FF0C1CEAD0521EBF1CEA23
:100D7800D15392EA0C0F93EA0C0F6FD01A4480EA11
:100D8800010C400218BF5FEA41211ED04FF00063FA
:100D980043EA501043EA5111A0FB01310CF0004026
:100DA800B1F5000F3EBF490041EAD3715B0040EA4C
:100DB800010062F17F02FD2A1DD8B3F1004F40EB1C
:100DC800C25008BF20F00100704790F0000F0CF0EF
:100DD800004C08BF49024CEA502040EA51207F3AB3
:100DE800C2BFD2F1FF0340EAC250704740F400008E
:100DF8004FF00003013A5DDC12F1190FDCBF00F07F
:100E080000407047C2F10002410021FA02F1C2F12C
:100E1800200200FA02FC5FEA310040F1000053EAC8
:100E28004C0308BF20EADC70704792F0000F00F016
:100E3800004C02BF400010F4000F013AF9D040EA1C
:100E48000C0093F0000F01F0004C02BF490011F4B0
:100E5800000F013BF9D041EA0C018FE70CEAD153AE
:100E680092EA0C0F18BF93EA0C0F0AD030F0004C2E
:100E780018BF31F0004CD8D180EA010000F00040E2
:100E8800704790F0000F17BF90F0004F084691F0A0
:100E9800000F91F0004F14D092EA0C0F01D14202DA
:100EA8000FD193EA0C0F03D14B0218BF084608D1A3
:100EB80080EA010000F0004040F0FE4040F40000ED
:100EC800704740F0FE4040F4400070474FF0FF0C80
:100ED8001CEAD0521EBF1CEAD15392EA0C0F93EAC7
:100EE8000C0F69D0A2EB030280EA010C49024FEA19
:100EF800402037D04FF0805343EA111143EA1013D2
:100F08000CF000408B4238BF5B0042F17D024FF489
:100F1800000C8B4224BF5B1A40EA0C00B3EB510F64
:100F280024BFA3EB510340EA5C00B3EB910F24BF4D
:100F3800A3EB910340EA9C00B3EBD10F24BFA3EBD2
:100F4800D10340EADC001B0118BF5FEA1C1CE0D19A
:100F5800FD2A3FF650AF8B4240EBC25008BF20F04D
:100F6800010070470CF0004C4CEA50207F32C2BFA1
:100F7800D2F1FF0340EAC250704740F400004FF03E
:100F88000003013A37E792F0000F00F0004C02BF6F
:100F9800400010F4000F013AF9D040EA0C0093F039
:100FA800000F01F0004C02BF490011F4000F013B93
:100FB800F9D041EA0C0195E70CEAD15392EA0C0FFB
:100FC80008D142027FF47DAF93EA0C0F7FF470AF33
:100FD800084676E793EA0C0F04D14B023FF44CAF76
:100FE80008466EE730F0004C18BF31F0004CCAD10B
:100FF80030F000427FF45CAF31F000437FF43CAF47
:101008005FE700BF53B94AB9002908BF00281CBFD1
:101018004FF0FF314FF0FF3000F08CB9ADF1080C04
:101028006DE904CE00F024F8DDF804E0DDE90223E0
:1010380004B07047D0B500220B4B06460F46FFF7A9
:10104800ABFA00F079F90446FFF72CFA0022074BB7
:10105800FFF7A2FA02460B4630463946FFF7E4F896
:1010680000F06AF92146D0BD0000F03D0000F041D3
:101078002DE9F047089E0D4604468E46002B40F0A9
:1010880083808A42174647D9B2FA82F34BB1C3F13B
:10109800200105FA03FE20FA01F19F4041EA0E0EF5
:1010A8009C404FEA1748BEFBF8FC1FFA87F908FB7B
:1010B8001CE20CFB09F0210C41EA024290420AD9D9
:1010C800BA180CF1FF3180F01881904240F2158176
:1010D800ACF1020C3A44121AB2FBF8F008FB1022E9
:1010E80000FB09F1A4B244EA0244A14209D93C191F
:1010F80000F1FF3280F00381A14240F20081023802
:101108003C44641A002140EA0C401EB10022DC4035
:10111800C6E90042BDE8F08702B9FFDEB2FA82F301
:10112800002B4FD18D1A01214FEA124E1FFA82F877
:10113800B5FBFEFC0EFB1C5508FB0CF0220C42EA2A
:101148000545A84207D97D190CF1FF3202D2A84201
:1011580000F2E98094462D1AB5FBFEF00EFB1055FF
:1011680008FB00F8A4B244EA0544A04507D93C1995
:1011780000F1FF3202D2A04500F2D9801046A4EB5C
:10118800080440EA0C40C0E78B4208D9002E00F062
:10119800B1800021C6E900050846BDE8F087B3FA2A
:1011A80083F100294BD1AB4202D3824200F2B980CD
:1011B800841A65EB030301209E46002EAAD0C6E9D7
:1011C800004EA7E79F40C3F12002D1404FEA174ED7
:1011D800B1FBFEF01FFA87F80EFB101124FA02F299
:1011E8009D4000FB08FC2A43150C45EA0145AC4527
:1011F80004FA03F409D97D1900F1FF3180F08F80DA
:10120800AC4540F28C8002383D44A5EB0C05B5FB9B
:10121800FEF10EFB115C01FB08F995B245EA0C459D
:10122800A94507D97D1901F1FF3274D2A94572D9B0
:1012380002393D44A5EB090541EA004178E7C1F1CF
:1012480020078B4022FA07FC4CEA030C25FA07F426
:101258004FEA1C4EB4FBFEF91FFA8CF80EFB19443A
:1012680020FA07F309FB08FA8D401D432B0C43EACB
:101278000444A24502FA01F200FA01F309D91CEB71
:10128800040409F1FF3048D2A24546D9A9F1020960
:101298006444A4EB0A04B4FBFEF00EFB104400FB0C
:1012A80008FAADB245EA0444A24508D91CEB040487
:1012B80000F1FF352DD2A2452BD90238644440EA0B
:1012C8000940A0FB0289A4EB0A044C45C6464D46DA
:1012D80019D316D05EB1B3EB0E0264EB050404FA21
:1012E80007F722FA01F31F43CC40C6E90074002136
:1012F800BDE8F087314630460CE78C46EBE61046F1
:10130800FFE64345E6D2B8EB020E69EB0C0501385F
:10131800E0E72846D3E711468CE78146B9E7084657
:1013280073E7084649E7ACF1020C3D4413E702387D
:101338003C4424E7704700BF4A0011D212F500125E
:1013480011D20DD56FF47873B3EB62520ED44FEA15
:10135800C12343F0004343EA505323FA02F0704795
:101368004FF00000704750EA013002D14FF0FF30D3
:1013780070474FF00000704780B582B000AF034659
:10138800FB71FB79002B12D101210B4802F036FCCE
:101398000346012B01D1012309E00121064802F08F
:1013A8002DFC0346002B01D1002300E000BF1846A6
:1013B8000837BD4680BD00BF0010014080B500AFB2
:1013C800174B184A1A60164B05225A60144B002214
:1013D8009A60134B0022DA60114B4FF4A0221A6175
:1013E8000F4B4FF400125A610D4B00221A760C4B2A
:1013F80001225A760A4B00229A76094B0022DA76A5
:10140800074B00221A77064B01225A77044801F04D
:10141800F1F90346002B01D000F0A8FC00BF80BD05
:10142800640100200064004080B500AF174B184AE3
:101438001A60164B20225A60144B00229A60134BF4
:101448000022DA60114B4FF470221A610F4B4FF4EF
:10145800C0025A610D4B00221A760C4B01225A76B3
:101468000A4B00229A76094B0022DA76074B0022B3
:101478001A77064B01225A77044801F0BBF9034654
:10148800002B01D000F072FC00BF80BD3C010020A1
:101498000068004080B58CB000AF786007F11C038D
:1014A80000221A605A609A60DA607B681B685D4A9D
:1014B80093425BD15C4B1B6801335B4A13605A4B08
:1014C8001B68012B0BD1594BDB69584A43F0007359
:1014D800D361564BDB6903F00073BB61BB69534BA7
:1014E8009B69524A43F004039361504B9B6903F094
:1014F80004037B617B694FF40063FB6100233B625B
:1015080000237B6207F11C031946494802F0F2F9EF
:101518004FF48053FB6102233B620323BB6207F154
:101528001C031946424802F0E5F900220021132065
:1015380001F0A9FF132001F0C2FF002200211420AE
:1015480001F0A1FF142001F0BAFF002200211520AC
:1015580001F099FF152001F0B2FF002200211620AA
:1015680001F091FF162001F0AAFF57E07B681B6885
:10157800304A934252D12D4BDB692C4A43F08063A9
:10158800D3612A4BDB6903F080633B613B69264BDF
:101598001B680133244A1360234B1B68012B0BD1B2
:1015A800224BDB69214A43F00073D3611F4BDB698F
:1015B80003F00073FB60FB681C4B9B691B4A43F0FC
:1015C80008039361194B9B6903F00803BB60BB6870
:1015D8002023FB6100233B6200237B6207F11C038D
:1015E8001946154802F086F94023FB6102233B6245
:1015F8000323BB6207F11C0319460F4802F07AF96E
:101608000E4B5B68FB62FB6A43F0E063FB62FB6ABC
:1016180043F48003FB62094AFB6A536000BF30371A
:10162800BD4680BD006400402C010020001002402F
:101638000008014000680040000C01400000014023
:1016480080B588B000AF07F1100300221A605A6015
:101658009A60DA601A4B9B69194A43F02003936138
:10166800174B9B6903F02003FB60FB68144B9B69D5
:10167800134A43F008039361114B9B6903F0080375
:10168800BB60BB680E4B9B690D4A43F00403936132
:101698000B4B9B6903F004037B607B684FF480531A
:1016A8003B6100237B610023BB6107F110031946EE
:1016B800044802F01FF900BF2037BD4680BD00BFB7
:1016C80000100240000C014080B500AF124B134AD5
:1016D8001A60114B124A5A600F4B00229A600E4B47
:1016E8000022DA600C4B4FF480421A610A4B002248
:1016F8005A61094B00229A61074B0022DA61064BB6
:1017080000221A62044802F091FA0346002B01D025
:1017180000F02CFB00BF80BD8C010020005400406D
:10172800801A060080B58AB000AF786007F114030C
:1017380000221A605A609A60DA607B681B681D4A4A
:10174800934232D11C4B9B691B4A43F008039361B7
:10175800194B9B6903F008033B613B694FF44073E5
:101768007B611223BB6103233B6207F11403194613
:10177800124802F0BFF8124B5B687B627B6A43F049
:10178800E0637B627B6A43F002037B620C4A7B6AFC
:101798005360094BDB69084A43F40013D361064BD5
:1017A800DB6903F40013FB60FB6800BF2837BD4604
:1017B80080BD00BF0054004000100240000C0140F2
:1017C8000000014080B483B000AF78604FF0604300
:1017D800D3F8803E03F00103002B13D04FF0604391
:1017E800D3F8003E03F00103002B0BD000E000BF4C
:1017F8004FF060431B68002BF9D04FF060437A68C4
:10180800D2B21A707B6818460C37BD4680BC704748
:1018180080B582B000AFC7E90001054B1968D7E968
:101828000023084600F034F800BF0837BD4680BDE5
:101838000000002080B582B000AFC7E90001054B69
:101848001968D7E90023084600F022F800BF0837D6
:10185800BD4680BD0400002080B500AF044B1B6866
:10186800184600F035F802460B461046194680BD6A
:101878000000002080B500AF044B1B68184600F03C
:1018880027F802460B461046194680BD0400002082
:1018980080B586B000AFF860C7E9002301F09AFE72
:1018A80000237B61FB687A691146184601F07AFFCC
:1018B800D7E90001FFF7BEFB02460B46F968032093
:1018C80001F018FE01F0ACFE00BF1837BD4680BD20
:1018D80080B582B000AF78607B681B681846FEF759
:1018E800E1FD02460B46104619460837BD4680BD45
:1018F80080B586B000AFF860B9607A6000237B617C
:1019080009E0BB685A1CBA601B781846FFF75AFFF3
:101918007B6901337B617A697B689A42F1DB7B687A
:1019280018461837BD4680BD90B585B000AF00F0A9
:10193800DBFE00F0D7F8614803F0A2FEFFF780FE57
:10194800FFF73CFDFFF770FDFFF7BEFE07E05C48C0
:1019580001F04BF80346002B01D000F007FA594874
:1019680000F009FA0346012BF1D00321544801F095
:101978006BFA0346002B01D000F0F8F9524801F049
:1019880034F80346002B01D000F0F0F903214E484B
:1019980001F05AFA0346002B01D000F0E7F94B4951
:1019A800484800F041FA642000F000FFFFF754FFB8
:1019B800464BD3E91223FEF737FC02460B46C7E92C
:1019C8000223FFF757FF414BD3E91423FEF72CFC02
:1019D80002460B46C7E900234FF000023C4BD7E90B
:1019E8000201FFF769F80346002B04D04FF000020C
:1019F800374BC7E902234FF00002364BD7E9020103
:101A0800FFF73CF80346002B04D04FF00002314B9F
:101A1800C7E902234FF000022F4BD7E90001FFF777
:101A28004BF80346002B04D04FF000022A4BC7E9BD
:101A380000234FF00002294BD7E90001FFF71EF8F9
:101A48000346002B04D04FF00002244BC7E90023C3
:101A58004FF00002224BD7E90201FEF7E7FB0246EE
:101A68000B46C7E902234FF000021D4BD7E90001DE
:101A7800FEF7DCFB02460B46C7E90023D7E9020163
:101A8800FFF73AF80446D7E90001FFF735F80346AF
:101A98001946204600F034F90020FFF76DFC034694
:101AA800012B07D1D7E90201FFF7B2FED7E9000100
:101AB800FFF7C0FEC82000F079FE70E7D86B000879
:101AC800640100208C0100203C010020E801002076
:101AD80000004440000044C000004E4000004EC0DA
:101AE80000005E4080B594B000AF07F118033822BB
:101AF8000021184603F0BCFD3B1D00221A605A6005
:101B08009A60DA601A610223BB610123FB62192320
:101B18003B630023BB6300237B6407F1180318466B
:101B280003F084F80346002B01D000F01FF90F23BF
:101B38007B600023BB600023FB6000233B61002324
:101B48007B613B1D0021184603F086FB0346002BF2
:101B580001D000F00BF9034B01221A6000BF503787
:101B6800BD4680BD7000424280B582B000AF78604B
:101B78001B4B1C4A0021786801F055F80346002BDE
:101B880029D17B681B68184A93420DD0174A9342A3
:101B980022D1144B1B689BB2124A1269D1B2104A67
:101BA800184600F025F817E00E4B1B68B3F5547F74
:101BB80006D10B4B1B78C72B02D1094BC6221A70D2
:101BC800084B1B689BB2074A1269D1B2044A1846EF
:101BD80000F052F800E000BF00BF0837BD4680BDE6
:101BE8006402002084020020006400400068004075
:101BF80080B582B000AF03463A60FB800B467B712C
:101C0800184B1B68184A1360164B1B69164A136158
:101C18003B681A78154B1A703B685A78134B5A7000
:101C28003B689A78114B9A703B68DA780F4BDA70F8
:101C38003B681A790D4B1A713B685A790B4B5A71EC
:101C48003B689A79094B9A713B68DA79074BDA71E4
:101C5800074B064A0449074800F00BFF00BF083746
:101C6800BD4680BD840200206C020020580200207E
:101C7800600200206401002080B582B000AF0346F6
:101C88003A60FB800B467B71184B1B68184A13603F
:101C9800164B1B69164A13613B681A78154B1A7064
:101CA8003B685A78134B5A703B689A78114B9A7074
:101CB8003B68DA780F4BDA703B681A790D4B1A716A
:101CC8003B685A790B4B5A713B689A79094B9A7160
:101CD8003B68DA79074BDA71074B064A044907482B
:101CE80000F0C7FE00BF0837BD4680BD8402002053
:101CF8006C02002058020020600200203C010020F5
:101D080080B582B000AF78603960144B40F28562CC
:101D18001A60124B08221A613B68DAB2104B1A702B
:101D28007B68DAB20E4B5A700D4B0022DA700C4BFE
:101D380000221A710A4B00225A71094B00229A712B
:101D4800074B0022DA71074B054A0449064800F0A0
:101D580090FE00BF0837BD4680BD00BF400200208E
:101D6800E0010020600200206401002080B400AF80
:101D780072B600BFFEE780B588B004AF7860642310
:101D880002930123019307F10F03009301237522A6
:101D9800D021786802F088F9FB7B682B3DD10023BD
:101DA800BB73642302930123019307F10E0300938D
:101DB80001236B22D021786802F07CF80723BB73DB
:101DC800642302930123019307F10E030093012377
:101DD8001922D021786802F06DF80023BB736423C0
:101DE80002930123019307F10E03009301231C22A0
:101DF800D021786802F05EF80023BB736423029355
:101E08000123019307F10E03009301231B22D02124
:101E1800786802F04FF8002300E0012318461037D5
:101E2800BD4680BD000000002DE9B04F94B004AF5E
:101E380078603960642302930E23019307F1080345
:101E4800009301233B22D021786802F02DF93B7AD8
:101E58001B021AB27B7A1BB213431AB23B681A8070
:101E6800BB7A1B021AB2FB7A1BB213431AB23B6845
:101E78005A803B7B1B021AB27B7B1BB213431AB2FC
:101E88003B689A80BB7B1B021AB2FB7B1BB21343D5
:101E9800FB863B7C1B021AB27B7C1BB213431AB233
:101EA8003B681A84BB7C1B021AB2FB7C1BB213432F
:101EB8001AB23B685A843B7D1B021AB27B7D1BB267
:101EC80013431AB23B689A843B68B3F9003018464A
:101ED800FEF7F8FA4FF00002B74BFEF787FC024610
:101EE8000B463968C1E902233B68B3F9023018464A
:101EF800FEF7E8FA4FF00002AF4BFEF777FC024618
:101F08000B463968C1E904233B68B3F90430184625
:101F1800FEF7D8FAA2A3D3E90023FEF767FC02462E
:101F28000B463968C1E90623B7F936301846FEF77B
:101F3800C5FE0346A1491846FEF7C8FF0346A04957
:101F48001846FEF707FE03461A463B681A643B68C4
:101F5800B3F920301846FEF7B5FA93A3D3E9002366
:101F6800FEF744FC02460B463968C1E90A233B6880
:101F7800B3F922301846FEF7A5FA8BA3D3E900235C
:101F8800FEF734FC02460B463968C1E90C233B686E
:101F9800B3F924301846FEF795FA83A3D3E9002352
:101FA800FEF724FC02460B463968C1E90E2300F00F
:101FB800F3FB0246834B1B68D31A1846FEF772FAE6
:101FC8004FF00002804BFEF711FC02460B46C7E9B2
:101FD8000A2300F0E1FB03467A4A13603B68B3F931
:101FE80000301A463B68B3F9003003FB02F23B6845
:101FF800B3F9043019463B68B3F9043003FB01F325
:1020080013441846FEF75EFA02460B461046194678
:1020180004F026FCC7E908014FF000024FF0000366
:10202800D7E90801FEF720FD0346002B19D13B68CC
:10203800B3F902301846FEF745FAD7E90823FEF748
:10204800D5FB02460B461046194604F079FA58A308
:10205800D3E90023FEF7A0FA02460B46C7E90E2390
:1020680005E04FF000024FF00003C7E90E233B687C
:10207800B3F900305B421846FEF724FA82468B46D5
:102088003B68B3F904301846FEF71CFA02460B46C3
:102098005046594604F0E1FB45A3D3E90023FEF777
:1020A8007BFA02460B46C7E906234FF00002474B6E
:1020B800D7E90601FEF7E2FC0346002B0AD03B688D
:1020C800D3E914014FF00002414BFEF7F5FC03463B
:1020D800002B14D14FF000023D4BD7E90601FEF763
:1020E800EBFC0346002B15D03B68D3E914014FF0F5
:1020F8000002364BFEF7C2FC0346002B0AD03549D6
:10210800D7E90623C1E906233968D7E90623C1E9D7
:10211800142312E03B68D3E90C23D7E90A01CDE97F
:102128000201CDE90023D7E906232A4800F056F832
:1021380002460B463968C1E914233B68D3E91423E6
:10214800904623F000494FF00002214B4046494693
:10215800FEF7B2FC0346002B08D03B68D3E90A23FC
:10216800144683F000453B68C3E90A453B68D3E958
:102178000A23D7E90A01CDE90201CDE90023D7E90D
:102188000E23154800F02AF802460B463968C1E9C3
:10219800122300BF4037BD46BDE8B08FAFF30080C3
:1021A800000000000029CC400000000000606040F2
:1021B800F8C1631ADCA54C400000D0400000AA43D7
:1021C800B81E1242A002002000408F40008056C076
:1021D800008056405000002008000020B0B592B0A2
:1021E80000AFF860C7E90023FB68D3E90823D7E903
:1021F8001601FEF719F802460B46C7E91023FB68DB
:10220800D3E90645D7E91023D7E91801FEF7C4F941
:1022180002460B4620462946FEF708F802460B46BA
:10222800F968C1E90623FB68D3E90A45FB68D3E9E5
:102238001001D7E91823FEF7AFF902460B461046FE
:102248001946FB68D3E90C23FDF7EEFF02460B465F
:1022580010461946FB68D3E90E23FDF7E5FF024651
:102268000B4610461946FB68D3E90023FDF7DEFF4D
:1022780002460B4610461946D7E91823FEF78CF993
:1022880002460B4620462946FDF7D0FF02460B467C
:10229800F968C1E90A23FB68D3E90C45FB68D3E96F
:1022A8001001D7E91823FEF777F902460B462046B6
:1022B8002946FDF7B9FF02460B46F968C1E90C2328
:1022C800FB68D3E90E45FB68D3E91001D7E9182369
:1022D800FEF762F902460B4620462946FDF7A4FFA1
:1022E80002460B46F968C1E90E23FB68D3E910459D
:1022F800FB68D3E90201D7E91823FEF74DF9024636
:102308000B4620462946FDF791FF02460B46F96821
:10231800C1E91023FB68D3E90A01FB68D3E9042368
:10232800FDF784FF02460B46C7E90E23FB68D3E995
:102338000A01D7E90E23FEF759FA02460B46C7E908
:102348000423FB68D3E90E01D7E90E23FEF74EFA02
:1023580002460B46C7E90623FB68D3E90623D7E9FB
:102368000001FDF761FF02460B46C7E90C23FB6835
:10237800D3E90645D7E90401D7E90C23FEF70CF9A0
:1023880002460B4620462946FDF750FF02460B46FB
:10239800F968C1E90623FB68D3E90845D7E90601CE
:1023A800D7E90C23FEF7F8F802460B4620462946E3
:1023B800FDF73CFF02460B46F968C1E90823FB68B4
:1023C800D3E90A23C7E90A23FB68D3E90C23C7E941
:1023D8000823FB68D3E90A45D7E90401D7E90A23AA
:1023E800FEF7DAF802460B4620462946FDF71CFFA1
:1023F80002460B46F968C1E90A23FB68D3E90C4594
:10240800D7E90401D7E90823FEF7C6F802460B46C8
:1024180020462946FDF708FF02460B46F968C1E940
:102428000C23FB68D3E90E45D7E90601D7E90A234F
:10243800FEF7B2F802460B4620462946FDF7F4FEA1
:1024480002460B46F968C1E90E23FB68D3E910453B
:10245800D7E90601D7E90823FEF79EF802460B469E
:1024680020462946FDF7E0FE02460B46F968C1E919
:102478001023FB68D3E90623104619464837BD46A2
:10248800B0BD000080B485B000AF154B9B69144AFD
:1024980043F001039361124B9B6903F00103BB6096
:1024A800BB680F4BDB690E4A43F08053D3610C4B7A
:1024B800DB6903F080537B607B680A4B5B68FB60D9
:1024C800FB6823F0E063FB60FB6843F00073FB608C
:1024D800044AFB68536000BF1437BD4680BC704790
:1024E800001002400000014080B400AFFEE780B455
:1024F80000AFFEE780B400AFFEE780B400AFFEE7B0
:1025080080B400AFFEE780B400AF00BFBD4680BC1A
:10251800704780B400AF00BFBD4680BC704780B430
:1025280000AF00BFBD4680BC704780B500AF00F06B
:1025380021F900BF80BD000080B500AF024800F05F
:10254800A8FC00BF80BD00BF6401002080B500AFBB
:10255800024800F09EFC00BF80BD00BF640100205F
:1025680080B500AF024800F094FC00BF80BD00BFFA
:102578006401002080B500AF024800F08AFC00BF6B
:1025880080BD00BF6401002080B586B000AFF86050
:10259800B9607A6000237B610AE0AFF300800146EE
:1025A800BB685A1CBA60CAB21A707B6901337B6176
:1025B8007A697B689A42F0DB7B6818461837BD4613
:1025C80080BD80B483B000AF78604FF0FF33184609
:1025D8000C37BD4680BC704780B483B000AF7860CC
:1025E80039603B684FF400525A60002318460C3794
:1025F800BD4680BC704780B483B000AF78600123CB
:1026080018460C37BD4680BC704780B485B000AF13
:10261800F860B9607A60002318461437BD4680BC5C
:102628007047000080B586B000AF7860144A154B3B
:10263800D31A7B617B693B61134B1B68002B02D16A
:10264800114B124A1A60104B1A687B6813443A6996
:102658009A4207D202F0E2FF03460C221A604FF0BA
:10266800FF3309E0084B1B68FB60074B1A687B685F
:102678001344054A1360FB6818461837BD4680BDE9
:10268800000001200004000030010020D8020020D2
:1026980080B400AF00BFBD4680BC70470C480D49F0
:1026A8000D4A002302E0D458C4500433C4188C42A5
:1026B800F9D30A4A0A4C002301E013600432A2420B
:1026C800FBD3FFF7E5FF02F0AFFFFFF72DF97047E7
:1026D800000000200C010020386D000810010020C7
:1026E800D8020020FEE7000080B500AF084B1B6849
:1026F800074A43F010031360032000F0B9FE0F20CF
:1027080000F008F8FFF7BEFE0023184680BD00BFA2
:102718000020024080B582B000AF7860124B1A6882
:10272800124B1B7819464FF47A73B3FBF1F3B2FBE3
:10273800F3F3184600F0D1FE0346002B01D0012325
:102748000EE07B680F2B0AD8002279684FF0FF3023
:1027580000F099FE064A7B681360002300E001231D
:1027680018460837BD4680BD98000020A00000200C
:102778009C00002080B400AF054B1B781A46054B1F
:102788001B681344034A136000BFBD4680BC7047F2
:10279800A0000020A402002080B400AF024B1B68F8
:1027A8001846BD4680BC7047A402002080B584B09E
:1027B80000AF7860FFF7F0FFB8607B68FB60FB68EC
:1027C800B3F1FF3F05D00A4B1B781A46FB68134448
:1027D800FB6000BFFFF7E0FF0246BB68D31AFA6848
:1027E8009A42F7D800BF00BF1037BD4680BD00BF72
:1027F800A000002080B584B000AF78607B68002B13
:1028080001D10123EDE07B6893F82030DBB2002B87
:1028180002D17868FEF73EFE7B681B681A687B6801
:102828001B6842F001021A60FFF7B6FFF86012E079
:10283800FFF7B2FF0246FB68D31A0A2B0BD97B6855
:102848005B6A43F400327B685A627B68052283F82E
:1028580020200123C5E07B681B685B6803F0010347
:10286800002BE5D07B681B681A687B681B6822F020
:1028780002021A60FFF790FFF86012E0FFF78CFF82
:102888000246FB68D31A0A2B0BD97B685B6A43F4B0
:1028980000327B685A627B68052283F82020012376
:1028A8009FE07B681B685B6803F00203002BE5D19F
:1028B8007B681B7E012B08D17B681B681A687B68C4
:1028C8001B6842F080021A6007E07B681B681A6880
:1028D8007B681B6822F080021A607B685B7E012B94
:1028E80008D17B681B681A687B681B6842F0400245
:1028F8001A6007E07B681B681A687B681B6822F00F
:1029080040021A607B689B7E012B08D17B681B689C
:102918001A687B681B6842F020021A6007E07B682F
:102928001B681A687B681B6822F020021A607B68A3
:10293800DB7E012B08D17B681B681A687B681B68E3
:1029480022F010021A6007E07B681B681A687B682F
:102958001B6842F010021A607B681B7F012B08D1AC
:102968007B681B681A687B681B6842F008021A605B
:1029780007E07B681B681A687B681B6822F00802FE
:102988001A607B685B7F012B08D17B681B681A681B
:102998007B681B6842F004021A6007E07B681B68CA
:1029A8001A687B681B6822F004021A607B689A68C0
:1029B8007B68DB681A437B681B691A437B685B6921
:1029C80042EA03017B685B685A1E7B681B680A43FE
:1029D800DA617B6800225A627B68012283F8202032
:1029E800002318461037BD4680BD80B584B000AFBF
:1029F80078607B6893F82030DBB2012B2ED17B689E
:102A0800022283F820207B681B681A687B681B6891
:102A180022F001021A60FFF7BFFEF86012E0FFF72C
:102A2800BBFE0246FB68D31A0A2B0BD97B685B6A8C
:102A380043F400327B685A627B68052283F82020C1
:102A4800012312E07B681B685B6803F00103002B1D
:102A5800E5D17B6800225A62002306E07B685B6A46
:102A680043F400227B685A62012318461037BD469A
:102A780080BD80B489B000AFF860B9607A603B600F
:102A8800FB6893F82030FB77FB681B689B68BB6189
:102A9800FB7F012B03D0FB7F022B40F0B880BB6982
:102AA80003F08063002B0AD1BB6903F00063002B9D
:102AB80005D1BB6903F08053002B00F0A080BB69EF
:102AC8001B0E03F003037B617B69022B07D9FB68AC
:102AD8005B6A43F40002FB685A6201239EE001220C
:102AE8007B699A403B681A60BB689B68002B0DD1D4
:102AF800BB681B685A05BB68DB68F96809681A4334
:102B08007B6918331B010B441A600FE0BB685B68D4
:102B1800DA00BB689B681A43BB68DB68F968096818
:102B28001A437B6918331B010B441A60FB68196848
:102B3800BB681A697B6918331B010B4404331A609C
:102B4800BB681B7D012B11D1FB681A687B691833A0
:102B58001B01134404331B68FA68116843F480723C
:102B68007B6918331B010B4404331A607B680733F5
:102B78001B781A067B6806331B781B041A437B688C
:102B880005331B781B0213437A6804321278104607
:102B9800FA68116843EA00027B691B010B4403F5DC
:102BA800C6731A607B6803331B781A067B68023386
:102BB8001B781B041A437B6801331B781B021343E1
:102BC8007A6812781046FA68116843EA00027B694D
:102BD8001B010B4403F5C4731A60FB681A687B6910
:102BE80018331B0113441B68FA68116843F001028B
:102BF8007B6918331B010B441A6000230EE0FB6845
:102C08005B6A43F40012FB685A62012306E0FB6822
:102C18005B6A43F48022FB685A6201231846243712
:102C2800BD4680BC704780B487B000AFF860B9601B
:102C38007A603B60FB6893F82030FB75FB7D012BC5
:102C480003D0FB7D022B40F0F380BB68002B0ED134
:102C5800FB681B68DB6803F00303002B16D1FB68D5
:102C68005B6A43F40012FB685A620123E7E0FB68E1
:102C78001B681B6903F00303002B07D1FB685B6A21
:102C880043F40012FB685A620123D8E0FB681A6813
:102C9800BB681B331B0113441B6803F004027B68E9
:102CA8009A607B689B68002B0CD1FB681A68BB682C
:102CB8001B331B0113441B685B0DC3F30A027B68BB
:102CC8001A600BE0FB681A68BB681B331B011344CE
:102CD8001B68DB0823F060427B685A60FB681A684F
:102CE800BB681B331B0113441B6803F002027B689B
:102CF800DA60FB681A68BB681B331B011344043392
:102D08001B6803F00F027B681A61FB681A68BB68CE
:102D18001B331B01134404331B681B0ADAB27B689C
:102D28009A61FB681A68BB681B331B0113440433A0
:102D38001B681B0C9AB27B685A61FB681A68BB68EF
:102D48001B01134403F5DC731B68DAB23B681A7085
:102D5800FB681A68BB681B01134403F5DC731B6826
:102D68001A0A3B680133D2B21A70FB681A68BB684A
:102D78001B01134403F5DC731B681A0C3B68023310
:102D8800D2B21A70FB681A68BB681B01134403F5BA
:102D9800DC731B681A0E3B680333D2B21A70FB68E7
:102DA8001A68BB681B01134403F5DE731A683B6895
:102DB8000433D2B21A70FB681A68BB681B0113444B
:102DC80003F5DE731B681A0A3B680533D2B21A7022
:102DD800FB681A68BB681B01134403F5DE731B68A4
:102DE8001A0C3B680633D2B21A70FB681A68BB68C3
:102DF8001B01134403F5DE731B681A0E3B68073387
:102E0800D2B21A70BB68002B08D1FB681B68DA685D
:102E1800FB681B6842F02002DA6007E0FB681B6869
:102E28001A69FB681B6842F020021A61002306E059
:102E3800FB685B6A43F48022FB685A6201231846E8
:102E48001C37BD4680BC704780B485B000AF786041
:102E580039607B6893F82030FB73FB7B012B02D031
:102E6800FB7B022B09D17B681B6859697B681B684F
:102E78003A680A435A61002306E07B685B6A43F4B8
:102E880080227B685A62012318461437BD4680BCED
:102E9800704780B58AB000AF786000237B627B689A
:102EA8001B685B693B627B681B685B68FB617B68CE
:102EB8001B689B68BB617B681B68DB687B617B6800
:102EC8001B681B693B617B681B689B69FB603B6AED
:102ED80003F00103002B7CD0BB6903F00103002B36
:102EE80023D07B681B6801229A60BB6903F0020348
:102EF800002B03D0786800F083F916E0BB6903F073
:102F08000403002B04D07B6A43F400637B620CE06B
:102F1800BB6903F00803002B04D07B6A43F4805399
:102F28007B6202E0786800F086F9BB6903F480737D
:102F3800002B24D07B681B684FF480729A60BB69B1
:102F480003F40073002B03D0786800F062F916E0F0
:102F5800BB6903F48063002B04D07B6A43F40053FD
:102F68007B620CE0BB6903F40063002B04D07B6A2E
:102F780043F480437B6202E0786800F065F9BB693E
:102F880003F48033002B24D07B681B684FF4803215
:102F98009A60BB6903F40033002B03D0786800F013
:102FA80041F916E0BB6903F48023002B04D07B6A47
:102FB80043F400437B620CE0BB6903F40023002B5D
:102FC80004D07B6A43F480337B6202E0786800F0C7
:102FD80044F93B6A03F00803002B0CD07B6903F02B
:102FE8001003002B07D07B6A43F400737B627B6875
:102FF8001B681022DA603B6A03F00403002B0BD035
:103008007B6903F00803002B06D07B681B68082245
:10301800DA60786800F02AF93B6A03F00203002BB3
:1030280009D07B681B68DB6803F00303002B02D020
:103038007868FEF799FD3B6A03F04003002B0CD03B
:103048003B6903F01003002B07D07B6A43F48063CD
:103058007B627B681B6810221A613B6A03F02003BD
:10306800002B0BD03B6903F00803002B06D07B68CC
:103078001B6808221A61786800F00AF93B6A03F0B5
:103088001003002B09D07B681B681B6903F003033E
:10309800002B02D0786800F0F2F83B6A03F40033A2
:1030A800002B0BD0FB6903F01003002B06D07B68C4
:1030B8001B6810225A60786800F0F3F83B6A03F442
:1030C8008033002B0BD0FB6903F00803002B06D0DC
:1030D8007B681B6808225A60786800F0EBF83B6A46
:1030E80003F40043002B7BD0FB6903F00403002B9F
:1030F80072D03B6A03F48073002B08D0FB6803F09E
:103108000103002B03D07B6A43F001037B623B6A17
:1031180003F40073002B08D0FB6803F00203002BB4
:1031280003D07B6A43F002037B623B6A03F480634B
:10313800002B08D0FB6803F00403002B03D07B6A44
:1031480043F004037B623B6A03F40063002B43D023
:10315800FB6803F07003002B3ED0FB6803F070039C
:10316800602B2BD0602B2ED8502B22D0502B2AD856
:10317800402B19D0402B26D8302B10D0302B22D8FA
:10318800102B02D0202B05D01DE07B6A43F00803EA
:103198007B6219E07B6A43F010037B6214E07B6A70
:1031A80043F020037B620FE07B6A43F040037B62BD
:1031B8000AE07B6A43F080037B6205E07B6A43F4A4
:1031C80080737B6200E000BF7B681B689A697B683C
:1031D8001B6822F070029A617B681B6804225A609F
:1031E8007B6A002B08D07B685A6A7B6A1A437B6823
:1031F8005A62786800F067F800BF2837BD4680BD7E
:1032080080B483B000AF786000BF0C37BD4680BC87
:10321800704780B483B000AF786000BF0C37BD46FC
:1032280080BC704780B483B000AF786000BF0C37B3
:10323800BD4680BC704780B483B000AF786000BFE3
:103248000C37BD4680BC704780B483B000AF78604F
:1032580000BF0C37BD4680BC704780B483B000AF58
:10326800786000BF0C37BD4680BC704780B483B01F
:1032780000AF786000BF0C37BD4680BC704780B493
:1032880083B000AF786000BF0C37BD4680BC704784
:1032980080B483B000AF786000BF0C37BD4680BCF7
:1032A800704780B483B000AF786000BF0C37BD466C
:1032B80080BC704780B483B000AF786000BF0C3723
:1032C800BD4680BC704780B483B000AF786000BF53
:1032D8000C37BD4680BC704780B485B000AF7860BD
:1032E8007B6803F00703FB600C4BDB68BB60BA68C4
:1032F8004FF6FF031340BB60FB681A02BB68134319
:1033080043F0BF6343F40033BB60044ABB68D36037
:1033180000BF1437BD4680BC704700BF00ED00E019
:1033280080B400AF044BDB681B0A03F007031846A0
:10333800BD4680BC704700BF00ED00E080B483B09C
:1033480000AF0346FB7197F90730002B0BDBFB79C5
:1033580003F01F02064997F907305B09012000FABC
:1033680002F241F8232000BF0C37BD4680BC7047ED
:1033780000E100E080B483B000AF03463960FB7120
:1033880097F90730002B0ADB3B68DAB20C4997F94A
:1033980007301201D2B20B4483F800230AE03B68DD
:1033A800DAB20849FB7903F00F03043B1201D2B2E9
:1033B8000B441A7600BF0C37BD4680BC704700BF6F
:1033C80000E100E000ED00E080B489B000AFF860F3
:1033D800B9607A60FB6803F00703FB61FB69C3F11E
:1033E8000703042B28BF0423BB61FB690433062BA6
:1033F80002D9FB69033B00E000237B614FF0FF32F9
:10340800BB6902FA03F3DA43BB681A407B699A4046
:103418004FF0FF317B6901FA03F3D9437B680B4016
:10342800134318462437BD4680BC704780B582B028
:1034380000AF78607B68013BB3F1807F01D3012343
:103448000FE00A4A7B68013B53600F214FF0FF30C1
:10345800FFF790FF054B00229A60044B07221A6081
:10346800002318460837BD4680BD00BF10E000E0C5
:1034780080B582B000AF78607868FFF72DFF00BF95
:103488000837BD4680BD80B586B000AF0346B96039
:103498007A60FB7300237B61FFF742FF78617A68EB
:1034A800B9687869FFF790FF024697F90F3011461F
:1034B8001846FFF75FFF00BF1837BD4680BD80B5CF
:1034C80082B000AF0346FB7197F907301846FFF743
:1034D80035FF00BF0837BD4680BD80B582B000AF5C
:1034E80078607868FFF7A2FF034618460837BD469C
:1034F80080BD0000F0B587B000AFF860B960C7E9DB
:1035080000230123FB750023BB7500237B752F4B1C
:103518001B7E012B01D1022354E02C4B01221A7689
:103528004CF2503000F0A8F80346FB75FB7D002BE9
:1035380044D1FB68012B02D101237B7507E0FB68AE
:10354800022B02D102237B7501E004237B75002343
:10355800BB752DE0BB7D5A00BB6802EB030CBB7D3D
:103568001901D7E90023C1F12006A1F1200022FAB0
:1035780001F403FA06F6344323FA00F0044323FA6D
:1035880001F5A3B21946604600F05AF84CF25030E3
:1035980000F072F80346FB750D4B1B690C4A23F0CB
:1035A80001031361FB7D002B07D1BB7D0133BB7584
:1035B800BA7D7B7D9A42CDD300E000BF034B002249
:1035C8001A76FB7D18461C37BD46F0BDA8020020C0
:1035D8000020024080B483B000AF0023FB710D4B84
:1035E8001B6903F08003002B0DD00A4B0A4A5A606E
:1035F800084B0A4A5A60074B1B6903F08003002BEB
:1036080001D00123FB71FB7918460C37BD4680BCFD
:10361800704700BF0020024023016745AB89EFCD0A
:1036280080B400AF054B1B69044A43F08003136163
:1036380000231846BD4680BC704700BF00200240EA
:1036480080B483B000AF78600B467B80084B0022C3
:10365800DA61084B1B69074A43F0010313617B6871
:103668007A881A8000BF0C37BD4680BC704700BFFF
:10367800A80200200020024080B584B000AF786026
:10368800FFF78AF8F86010E07B68B3F1FF3F0CD0D1
:103698007B68002B07D0FFF77FF80246FB68D31A38
:1036A8007A689A4201D2032325E0154BDB6803F0C0
:1036B8000103002BE8D1124BDB6803F02003002B39
:1036C80002D00F4B2022DA600D4BDB6803F01003A9
:1036D800002B0BD10A4BDB6903F00103002B05D14A
:1036E800074BDB6803F00403002B03D000F00AF853
:1036F800012300E0002318461037BD4680BD00BFF7
:103708000020024080B483B000AF00237B60234BCD
:10371800DB6803F01003002B09D0214BDB6943F071
:1037280002031F4AD3617B6843F010037B601B4B85
:10373800DB6803F00403002B09D0194BDB6943F065
:103748000103174AD3617B6843F004037B60134B82
:10375800DB6903F00103002B0BD0114BDB6943F04D
:1037680004030F4AD3610D4BDB690C4A23F00103B4
:10377800D3617B6840F20112934206D1074BDB69A3
:10378800064A23F00103D36102E0044A7B68D36050
:1037980000BF0C37BD4680BC704700BF0020024008
:1037A800A802002080B584B000AF7860396001239A
:1037B800FB730023BB602F4B1B7E012B01D102231F
:1037C80053E02C4B01221A767B681B68022B16D11A
:1037D8004CF25030FFF750FF0346002B41D1012037
:1037E80000F04CF84CF25030FFF746FF0346FB73ED
:1037F800214B1B69204A23F00403136131E04CF28A
:103808005030FFF739FF0346002B2AD13B684FF0B1
:10381800FF321A607B689B68BB6019E0B86800F0EB
:1038280049F84CF25030FFF727FF0346FB73124B61
:103838001B69114A23F002031361FB7B002B03D0A1
:103848003B68BA681A600CE0BB6803F50063BB60AC
:103858007B68DB68DA027B689B681344BA689A4223
:10386800DCD3044B00221A76FB7B18461037BD4682
:1038780080BD00BFA80200200020024080B483B0B1
:1038880000AF7860094B0022DA61094B1B69084ACE
:1038980043F004031361064B1B69054A43F04003D8
:1038A800136100BF0C37BD4680BC7047A8020020DA
:1038B8000020024080B483B000AF78600B4B002238
:1038C800DA610B4B1B690A4A43F002031361084A89
:1038D8007B685361064B1B69054A43F0400313613B
:1038E80000BF0C37BD4680BC704700BFA80200204F
:1038F8000020024080B48BB000AF786039600023AC
:103908007B6200233B6269E101227B6A02FA03F3CE
:10391800FB613B681B68FA691340BB61BA69FB69C4
:103928009A4240F058813B685B689A4A93425ED05D
:10393800984A934275D8984A934258D0964A9342E7
:103948006FD8964A934252D0944A934269D8944A7F
:1039580093424CD0924A934263D8924A934246D0BB
:10396800904A93425DD8122B2AD8122B59D801A21B
:1039780052F823F0F7390008D1390008E339000874
:10398800253A00082B3A00082B3A00082B3A000881
:103998002B3A00082B3A00082B3A00082B3A00086B
:1039A8002B3A00082B3A00082B3A00082B3A00085B
:1039B8002B3A00082B3A0008D9390008ED390008DD
:1039C800794A934213D02CE03B68DB683B6229E0DC
:1039D8003B68DB6804333B6224E03B68DB68083300
:1039E8003B621FE03B68DB680C333B621AE03B68D4
:1039F8009B68002B02D104233B6213E03B689B6861
:103A0800012B05D108233B627B68FA691A6109E03A
:103A180008233B627B68FA695A6103E000233B6232
:103A280000E000BFBB69FF2B01D87B6801E07B6821
:103A380004337B61BB69FF2B02D87B6A9B0002E0E1
:103A48007B6A083B9B003B617B691A680F213B69D5
:103A580001FA03F3DB431A40396A3B6901FA03F3BD
:103A68001A437B691A603B685B6803F08053002B3C
:103A780000F0B1804D4B9B694C4A43F001039361C0
:103A88004A4B9B6903F00103BB60BB68484A7B6AE9
:103A98009B08023352F82330FB607B6A03F0030370
:103AA8009B000F2202FA03F3DB43FA681340FB6022
:103AB8007B68404A934213D07B683F4A93420DD0BB
:103AC8007B683E4A934207D07B683D4A934201D1C6
:103AD800032306E0042304E0022302E0012300E0BC
:103AE80000237A6A02F0030292009340FA681343B3
:103AF800FB602F497B6A9B080233FA6841F8232050
:103B08003B685B6803F48033002B06D02D4B1A68A2
:103B18002C49BB6913430B6006E02A4B1A68BB6942
:103B2800DB43284913400B603B685B6803F40033B0
:103B3800002B06D0234B5A682249BB6913434B60BC
:103B480006E0204B5A68BB69DB431E4913404B60B3
:103B58003B685B6803F48013002B06D0194B9A6806
:103B68001849BB6913438B6006E0164B9A68BB691A
:103B7800DB43144913408B603B685B6803F4001314
:103B8800002B21D00F4BDA680E49BB691343CB6079
:103B980021E000BF000032100000311000002210A8
:103BA8000000211000001210000011100010024047
:103BB8000000014000080140000C014000100140D5
:103BC80000140140000401400B4BDA68BB69DB4379
:103BD80009491340CB607B6A01337B623B681A68F2
:103BE8007B6A22FA03F3002B7FF48EAE00BF00BF7E
:103BF8002C37BD4680BC70470004014080B485B0B6
:103C080000AF78600B467B807B689A687B8813409E
:103C1800002B02D00123FB7301E00023FB73FB7B25
:103C280018461437BD4680BC7047000080B584B084
:103C380000AF78607B68002B01D101232BE17B6802
:103C480093F83D30DBB2002B06D17B68002283F865
:103C58003C207868FDF766FD7B68242283F83D20C8
:103C68007B681B681A687B681B6822F001021A606F
:103C78007B681B681A687B681B6842F400421A60FC
:103C88007B681B681A687B681B6822F400421A600C
:103C980001F092FCF8607B685B68814A934207D820
:103CA800FB68804A934294BF01230023DBB206E0FD
:103CB800FB687D4A934294BF01230023DBB2002BAB
:103CC80001D00123E7E0FB68784AA2FB03239B0CA1
:103CD800BB607B681B685B6823F03F017B681B68DF
:103CE800BA680A435A607B681B681B6A23F03F0165
:103CF8007B685B686A4A934202D8BB68013309E073
:103D0800BB684FF4967202FB03F3694AA2FB0323D4
:103D18009B0901337A6812680B4313627B681B683E
:103D2800DB6923F44F4222F0FF027B685B685C4941
:103D38008B4219D8FB68591E7B685B685B00B1FB36
:103D4800F3F3591C40F6FC730B40002B0AD0FB68B8
:103D5800591E7B685B685B00B1FBF3F30133C3F367
:103D68000B0351E004234FE07B689B68002B11D1C3
:103D7800FB68581E7B6859680B465B000B44B0FB18
:103D8800F3F30133C3F30B03002B0CBF0123002310
:103D9800DBB212E0FB68581E7B6859680B469B0033
:103DA8000B4499000B44B0FBF3F30133C3F30B034B
:103DB800002B0CBF01230023DBB2002B01D0012311
:103DC80022E07B689B68002B0ED1FB68581E7B683D
:103DD80059680B465B000B44B0FBF3F30133C3F3A4
:103DE8000B0343F400430FE0FB68581E7B685968D7
:103DF8000B469B000B4499000B44B0FBF3F30133D3
:103E0800C3F30B0343F44043796809681343CB6158
:103E18007B681B681B6823F0C0017B68DA697B68D4
:103E28001B6A1A437B681B680A431A607B681B6815
:103E38009B6823F4034323F0FF037A6811697A68C7
:103E4800D26811437A6812680B4393607B681B68D9
:103E5800DB6823F0FF017B685A697B689B691A431A
:103E68007B681B680A43DA607B681B681A687B6892
:103E78001B6842F001021A607B6800221A647B68A2
:103E8800202283F83D207B6800221A637B68002289
:103E980083F83E20002318461037BD4680BD00BF7A
:103EA800A08601007F841E00FF083D0083DE1B43BF
:103EB800D34D621080B588B002AFF860084611464D
:103EC8001A4603467B810B463B811346FB80FEF76F
:103ED80063FC7861FB6893F83D30DBB2202B40F03F
:103EE800D9807B690093192301226D49F86800F095
:103EF800C1FC0346002B01D00223CCE0FB6893F8F9
:103F08003C30012B01D10223C5E0FB68012283F874
:103F18003C20FB681B681B6803F00103012B07D0DA
:103F2800FB681B681A68FB681B6842F001021A608C
:103F3800FB681B681A68FB681B6822F400621A6039
:103F4800FB68212283F83D20FB68402283F83E204D
:103F5800FB6800221A64FB683A6A5A62FB68BA8CEA
:103F68005A85FB685B8D9AB2FB681A85FB684D4AD7
:103F7800DA62F8883A8979897B690193BB6A009388
:103F88000346F86800F0F8FA0346002B52D00123E4
:103F980081E07A69B96AF86800F042FD0346002BAF
:103FA8000DD0FB681B6C042B07D1FB681B681A68D3
:103FB800FB681B6842F400721A6001236BE0FB681F
:103FC8005B6A1A78FB681B681A61FB685B6A5A1C93
:103FD800FB685A62FB681B8D013B9AB2FB681A8525
:103FE800FB685B8D9BB2013B9AB2FB685A85FB6804
:103FF8001B685B6903F00403042B1BD1FB681B8D52
:10400800002B17D0FB685B6A1A78FB681B681A617B
:10401800FB685B6A5A1CFB685A62FB681B8D013B94
:104028009AB2FB681A85FB685B8D9BB2013B9AB21A
:10403800FB685A85FB681B8D002BAAD17A69B96A7F
:10404800F86800F02EFD0346002B0DD0FB681B6CB2
:10405800042B07D1FB681B681A68FB681B6842F4CD
:1040680000721A60012316E0FB681B681A68FB6877
:104078001B6842F400721A60FB68202283F83D2016
:10408800FB68002283F83E20FB68002283F83C206E
:10409800002300E0022318461837BD4680BD00BF44
:1040A800020010000000FFFF80B58CB002AFF8607E
:1040B800084611461A4603467B810B463B81134648
:1040C800FB8000233B62FEF767FB7862FB6893F88E
:1040D8003D30DBB2202B40F044827B6A00931923E9
:1040E80001228249F86800F0C5FB0346002B01D085
:1040F800022337E2FB6893F83C30012B01D10223FD
:1041080030E2FB68012283F83C20FB681B681B68CF
:1041180003F00103012B07D0FB681B681A68FB68D2
:104128001B6842F001021A60FB681B681A68FB688A
:104138001B6822F400621A60FB68222283F83D2083
:10414800FB68402283F83E20FB6800221A64FB6863
:104158003A6B5A62FB68BA8E5A85FB685B8D9AB2D5
:10416800FB681A85FB68624ADA62F8883A897989B5
:104178007B6A0193BB6B00930346F86800F092FAE0
:104188000346002B01D00123ECE1FB681B8D002BBB
:1041980013D10023FB61FB681B685B69FB61FB684B
:1041A8001B689B69FB61FB69FB681B681A68FB68F5
:1041B8001B6842F400721A60C0E1FB681B8D012B7A
:1041C8001ED1FB681B681A68FB681B6822F48062B2
:1041D8001A6072B600BF0023BB61FB681B685B698D
:1041E800BB61FB681B689B69BB61BB69FB681B689B
:1041F8001A68FB681B6842F400721A6062B635E000
:10420800FB681B8D022B1ED1FB681B681A68FB68B4
:104218001B6842F400621A6072B600BF00237B611B
:10422800FB681B685B697B61FB681B689B697B613A
:104238007B69FB681B681A68FB681B6822F480624C
:104248001A6062B612E0FB681B681A68FB681B6894
:1042580042F480621A6000233B61FB681B685B695B
:104268003B61FB681B689B693B613B6966E1FB68D6
:104278001B8D032B00F21F81FB681B8D012B23D1A3
:104288007A6AB96BF86800F04DFC0346002B01D040
:10429800012367E1FB681B681A69FB685B6AD2B295
:1042A8001A70FB685B6A5A1CFB685A62FB681B8DB4
:1042B800013B9AB2FB681A85FB685B8D9BB2013B98
:1042C8009AB2FB685A8539E1FB681B8D022B52D1E3
:1042D8007B6A0093BB6B00220649F86800F0CAFAB3
:1042E8000346002B08D001233CE100BF0200100068
:1042F8000000FFFF0400010072B600BFFB681B68E6
:104308001A68FB681B6842F400721A60FB681B6835
:104318001A69FB685B6AD2B21A70FB685B6A5A1C3E
:10432800FB685A62FB681B8D013B9AB2FB681A85D1
:10433800FB685B8D9BB2013B9AB2FB685A8562B6FB
:1043480000BFFB681B681A69FB685B6AD2B21A7007
:10435800FB685B6A5A1CFB685A62FB681B8D013B51
:104368009AB2FB681A85FB685B8D9BB2013B9AB2D7
:10437800FB685A85E2E07B6A0093BB6B00227B49AD
:10438800F86800F077FA0346002B01D00123E9E032
:10439800FB681B681A68FB681B6822F480621A6055
:1043A80072B600BFFB681B681A69FB685B6AD2B209
:1043B8001A70FB685B6A5A1CFB685A62FB681B8DA3
:1043C800013B9AB2FB681A85FB685B8D9BB2013B87
:1043D8009AB2FB685A85664B1B68DB08654AA2FBE4
:1043E80003231A0A13469B001344DA00D31A3B62CC
:1043F8003B6A013B3B623B6A002B18D1FB680022F9
:104408001A63FB68202283F83D20FB68002283F8AA
:104418003E20FB681B6C43F02002FB681A6462B6FE
:1044280000BFFB68002283F83C2001239AE0FB6868
:104438001B685B6903F00403042BD9D1FB681B6874
:104448001A68FB681B6842F400721A60FB681B68F4
:104458001A69FB685B6AD2B21A70FB685B6A5A1CFD
:10446800FB685A62FB681B8D013B9AB2FB681A8590
:10447800FB685B8D9BB2013B9AB2FB685A8562B6BA
:1044880000BFFB681B681A69FB685B6AD2B21A70C6
:10449800FB685B6A5A1CFB685A62FB681B8D013B10
:1044A8009AB2FB681A85FB685B8D9BB2013B9AB296
:1044B800FB685A8542E07A6AB96BF86800F032FB0B
:1044C8000346002B01D001234CE0FB681B681A69E6
:1044D800FB685B6AD2B21A70FB685B6A5A1CFB689D
:1044E8005A62FB681B8D013B9AB2FB681A85FB6810
:1044F8005B8D9BB2013B9AB2FB685A85FB681B68CF
:104508005B6903F00403042B18D1FB681B681A6964
:10451800FB685B6AD2B21A70FB685B6A5A1CFB685C
:104528005A62FB681B8D013B9AB2FB681A85FB68CF
:104538005B8D9BB2013B9AB2FB685A85FB681B8D69
:10454800002B7FF494AEFB68202283F83D20FB68A3
:10455800002283F83E20FB68002283F83C200023D9
:1045680000E0022318462837BD4680BD040001003C
:104578009800002089B5F81480B588B002AFF860BB
:10458800084611461A4603467B810B463B81134673
:10459800FB80FB681B681A68FB681B6842F4807222
:1045A8001A607B6A00933B6A00224FF00111F86899
:1045B80000F060F90346002B0DD0FB681B681B68F0
:1045C80003F48073B3F5807F03D1FB684FF4007266
:1045D8001A6403235FE07B89DBB21A46FB681B6819
:1045E80002F0FE021A617B6A3A6A2D49F86800F007
:1045F80098F90346002B01D001234CE000237B618E
:10460800FB681B685B697B61FB681B689B697B6156
:104618007B697A6A396AF86800F002FA0346002B67
:104628000DD0FB681B6C042B07D1FB681B681A684C
:10463800FB681B6842F400721A6001232BE0FB88B8
:10464800012B05D13B89DAB2FB681B681A6121E0AE
:104658003B891B0A9BB2DAB2FB681B681A617A6A4B
:10466800396AF86800F0DCF90346002B0DD0FB68C6
:104678001B6C042B07D1FB681B681A68FB681B6856
:1046880042F400721A60012305E03B89DAB2FB6844
:104698001B681A61002318461837BD4680BD00BF45
:1046A8000200010080B588B002AFF86008461146E4
:1046B8001A4603467B810B463B811346FB80FB6809
:1046C8001B681A68FB681B6842F480621A60FB6802
:1046D8001B681A68FB681B6842F480721A607B6A60
:1046E80000933B6A00224FF00111F86800F0C2F80D
:1046F8000346002B0DD0FB681B681B6803F480730E
:10470800B3F5807F03D1FB684FF400721A6403236A
:10471800AAE07B89DBB21A46FB681B6802F0FE023E
:104728001A617B6A3A6A5249F86800F0FAF8034657
:10473800002B01D0012397E000237B61FB681B68F5
:104748005B697B61FB681B689B697B617B697A6A33
:10475800396AF86800F064F90346002B0DD0FB684D
:104768001B6C042B07D1FB681B681A68FB681B6865
:1047780042F400721A60012376E0FB88012B05D110
:104788003B89DAB2FB681B681A6121E03B891B0A86
:104798009BB2DAB2FB681B681A617A6A396AF868F0
:1047A80000F03EF90346002B0DD0FB681B6C042B70
:1047B80007D1FB681B681A68FB681B6842F4007223
:1047C8001A60012350E03B89DAB2FB681B681A6162
:1047D8007A6A396AF86800F023F90346002B0DD08D
:1047E800FB681B6C042B07D1FB681B681A68FB6805
:1047F8001B6842F400721A60012335E0FB681B68ED
:104808001A68FB681B6842F480721A607B6A00931E
:104818003B6A00224FF00111F86800F02BF80346BC
:10482800002B0DD0FB681B681B6803F48073B3F57D
:10483800807F03D1FB684FF400721A64032313E0EE
:104848007B89DBB243F00103DAB2FB681B681A61AB
:104858007B6A3A6A0649F86800F063F80346002B59
:1048680001D0012300E0002318461837BD4680BD5B
:104878000200010080B584B000AFF860B9603B6009
:104888001346FB7125E03B68B3F1FF3F21D0FDF7EC
:1048980083FF0246BB69D31A3A689A4202D33B683F
:1048A800002B16D1FB6800221A63FB68202283F8CC
:1048B8003D20FB68002283F83E20FB681B6C43F018
:1048C8002002FB681A64FB68002283F83C2001235D
:1048D80023E0BB681B0CDBB2012B0DD1FB681B6806
:1048E8005B69DA43BB6813409BB2002B0CBF012302
:1048F8000023DBB21A460CE0FB681B689B69DA43AD
:10490800BB6813409BB2002B0CBF01230023DBB212
:104918001A46FB799A42B6D0002318461037BD468E
:1049280080BD80B584B000AFF860B9607A603B6044
:1049380051E0FB681B685B6903F48063B3F5806F23
:1049480023D1FB681B681A68FB681B6842F4007275
:104958001A60FB681B686FF480625A61FB6800226A
:104968001A63FB68202283F83D20FB68002283F845
:104978003E20FB681B6C43F00402FB681A64FB686A
:10498800002283F83C20012346E07B68B3F1FF3F17
:1049980021D0FDF701FF02463B68D31A7A689A4294
:1049A80002D37B68002B16D1FB6800221A63FB68D0
:1049B800202283F83D20FB68002283F83E20FB6814
:1049C8001B6C43F02002FB681A64FB68002283F822
:1049D8003C20012320E0BB681B0CDBB2012B0CD16F
:1049E800FB681B685B69DA43BB6813409BB2002B0A
:1049F80014BF01230023DBB20BE0FB681B689B6933
:104A0800DA43BB6813409BB2002B14BF0123002379
:104A1800DBB2002B8DD1002318461037BD4680BD70
:104A280080B584B000AFF860B9607A602DE0F868AE
:104A380000F0CEF80346002B01D001232DE0BB681F
:104A4800B3F1FF3F21D0FDF7A7FE02467B68D31ADA
:104A5800BA689A4202D3BB68002B16D1FB680022C1
:104A68001A63FB68202283F83D20FB68002283F844
:104A78003E20FB681B6C43F02002FB681A64FB684D
:104A8800002283F83C20012307E0FB681B685B6970
:104A980003F08003802BCAD1002318461037BD4687
:104AA80080BD80B584B000AFF860B9607A602DE051
:104AB800F86800F08DF80346002B01D001232DE0A3
:104AC800BB68B3F1FF3F21D0FDF766FE02467B6865
:104AD800D31ABA689A4202D3BB68002B16D1FB6876
:104AE80000221A63FB68202283F83D20FB6800221D
:104AF80083F83E20FB681B6C43F02002FB681A64B5
:104B0800FB68002283F83C20012307E0FB681B6850
:104B18005B6903F00403042BCAD10023184610373D
:104B2800BD4680BD80B584B000AFF860B9607A60DA
:104B380042E0FB681B685B6903F01003102B19D176
:104B4800FB681B686FF010025A61FB6800221A6349
:104B5800FB68202283F83D20FB68002283F83E2072
:104B6800FB681A6CFB681A64FB68002283F83C2017
:104B7800012329E0FDF710FE02467B68D31ABA68C4
:104B88009A4202D3BB68002B16D1FB6800221A6335
:104B9800FB68202283F83D20FB68002283F83E2032
:104BA800FB681B6C43F02002FB681A64FB68002258
:104BB80083F83C20012307E0FB681B685B6903F06E
:104BC8004003402BB5D1002318461037BD4680BDA1
:104BD80080B483B000AF78607B681B685B6903F4BE
:104BE8008063B3F5806F1BD17B681B686FF48062AC
:104BF8005A617B6800221A637B68202283F83D2073
:104C08007B68002283F83E207B681B6C43F004021B
:104C18007B681A647B68002283F83C20012300E04B
:104C2800002318460C37BD4680BC704780B586B057
:104C380000AF78607B68002B01D1012304E37B6817
:104C48001B6803F00103002B00F08780924B5B6820
:104C580003F00C03042B0CD08F4B5B6803F00C03A0
:104C6800082B12D18C4B5B6803F48033B3F5803F7B
:104C78000BD1894B1B6803F40033002B6CD07B6885
:104C88009B68002B68D10123DEE27B689B68B3F543
:104C9800803F06D1804B1B687F4A43F48033136002
:104CA8002EE07B689B68002B0CD17B4B1B687A4AF3
:104CB80023F480331360784B1B68774A23F48023EE
:104CC80013601DE07B689B68B3F5A02F0CD1724B75
:104CD8001B68714A43F4802313606F4B1B686E4A4C
:104CE80043F4803313600BE06B4B1B686A4A23F470
:104CF80080331360684B1B68674A23F48023136072
:104D08007B689B68002B13D0FDF746FD386108E0EF
:104D1800FDF742FD02463B69D31A642B01D90323F0
:104D280092E25D4B1B6803F40033002BF0D014E0D3
:104D3800FDF732FD386108E0FDF72EFD02463B69BC
:104D4800D31A642B01D903237EE2534B1B6803F467
:104D58000033002BF0D100E000BF7B681B6803F034
:104D68000203002B63D04C4B5B6803F00C03002B51
:104D78000BD0494B5B6803F00C03082B1CD1464B46
:104D88005B6803F48033002B16D1434B1B6803F098
:104D98000203002B05D07B685B69012B01D001233E
:104DA80052E23D4B1B6823F0F8027B689B69DB00ED
:104DB800394913430B603AE07B685B69002B20D0CC
:104DC800364B01221A60FDF7E7FC386108E0FDF771
:104DD800E3FC02463B69D31A022B01D9032333E2D1
:104DE8002D4B1B6803F00203002BF0D02A4B1B68E5
:104DF80023F0F8027B689B69DB00274913430B60AB
:104E080015E0264B00221A60FDF7C6FC386108E061
:104E1800FDF7C2FC02463B69D31A022B01D90323D2
:104E280012E21D4B1B6803F00203002BF0D17B68D4
:104E38001B6803F00803002B3AD07B68DB69002B62
:104E480019D0174B01221A60FDF7A6FC386108E05B
:104E5800FDF7A2FC02463B69D31A022B01D90323B2
:104E6800F2E10D4B5B6A03F00203002BF0D0012046
:104E780000F0B6FB1CE00A4B00221A60FDF78CFC20
:104E880038610FE0FDF788FC02463B69D31A022B14
:104E980008D90323D8E100BF0010024000004242B5
:104EA800800442429B4B5B6A03F00203002BE9D16A
:104EB8007B681B6803F00403002B00F0A680002326
:104EC800FB75944BDB6903F08053002B0DD1914B9C
:104ED800DB69904A43F08053D3618E4BDB6903F062
:104EE8008053BB60BB680123FB758B4B1B6803F4C5
:104EF8008073002B18D1884B1B68874A43F4807352
:104F08001360FDF749FC386108E0FDF745FC0246EF
:104F18003B69D31A642B01D9032395E17E4B1B68A7
:104F280003F48073002BF0D07B681B69012B06D13A
:104F3800784B1B6A774A43F0010313622DE07B68C4
:104F48001B69002B0CD1734B1B6A724A23F00103B7
:104F58001362704B1B6A6F4A23F0040313621CE050
:104F68007B681B69052B0CD16A4B1B6A694A43F0A5
:104F780004031362674B1B6A664A43F0010313621A
:104F88000BE0644B1B6A634A23F001031362614B15
:104F98001B6A604A23F0040313627B681B69002BB9
:104FA80015D0FDF7F9FB38610AE0FDF7F5FB02467D
:104FB8003B69D31A41F28832934201D9032343E172
:104FC800544B1B6A03F00203002BEED014E0FDF7EC
:104FD800E3FB38610AE0FDF7DFFB02463B69D31AC1
:104FE80041F28832934201D903232DE1494B1B6AD0
:104FF80003F00203002BEED1FB7D012B05D1454BBD
:10500800DB69444A23F08053D3617B68DB6A002B59
:1050180000F08C803F4B5B6803F48033B3F5803F2E
:105028000ED13C4B5B6803F00C03082B08D1394BBD
:10503800DB6A03F48033B3F5803F01D1012303E138
:105048007B68DB6A022B4ED1324B1B6803F080531E
:10505800002B09D02F4BDB6A03F0F0027B685B6BF7
:105068009A4201D00123EFE02C4B00221A60FDF791
:1050780093FB386108E0FDF78FFB02463B69D31AC2
:10508800642B01D90323DFE0224B1B6803F0006384
:10509800002BF0D11F4BDB6A23F0F0027B685B6BBF
:1050A8001C491343CB621B4BDB6A23F470627B6899
:1050B8001B6B18491343CB62184B01221A60FDF78A
:1050C8006BFB386108E0FDF767FB02463B69D31AC2
:1050D800642B01D90323B7E00E4B1B6803F0006370
:1050E800002BF0D022E00B4BDB6A0A4A23F4803312
:1050F800D3620A4B00221A60FDF74EFB38610FE0BD
:10510800FDF74AFB02463B69D31A642B08D90323EF
:105118009AE000BF00100240007000406800424260
:105128004B4B1B6803F00063002BE9D17B681B6ABB
:10513800002B00F08880464B5B6803F00C03082BBB
:1051480068D07B681B6A022B4DD1424B00221A6043
:10515800FDF722FB386108E0FDF71EFB02463B69BC
:10516800D31A022B01D903236EE0394B1B6803F0D5
:105178000073002BF0D17B685B6AB3F5803F0FD1D9
:10518800334BDA6A7B685B6831491343CB62304B37
:10519800DB6A23F00F027B68DB682D491343CB627F
:1051A8002B4B5B6823F474127B68596A7B689B6A93
:1051B8000B43274913434B60264B01221A60FDF726
:1051C800EBFA386108E0FDF7E7FA02463B69D31AC3
:1051D800022B01D9032337E01D4B1B6803F0007332
:1051E800002BF0D02FE01B4B00221A60FDF7D4FAF9
:1051F800386108E0FDF7D0FA02463B69D31A022B62
:1052080001D9032320E0124B1B6803F00073002B25
:10521800F0D118E07B681B6A012B01D1012313E050
:105228000B4B5B68FB60FB6803F480327B685B6A4E
:105238009A4206D1FB6803F470127B689B6A9A4213
:1052480001D0012300E0002318461837BD4680BD71
:10525800001002406000424280B584B000AF786020
:1052680039607B68002B01D10123D0E06A4B1B68B1
:1052780003F007033A689A4210D9674B1B6823F07A
:10528800070265493B6813430B60634B1B6803F0D7
:1052980007033A689A4201D00123B8E07B681B688B
:1052A80003F00203002B20D07B681B6803F0040383
:1052B800002B05D0594B5B68584A43F4E0635360B0
:1052C8007B681B6803F00803002B05D0534B5B6811
:1052D800524A43F460535360504B5B6823F0F0022A
:1052E8007B689B684D4913434B607B681B6803F0E0
:1052F8000103002B40D07B685B68012B07D1474B2B
:105308001B6803F40033002B15D101237FE07B6871
:105318005B68022B07D1414B1B6803F00073002B1D
:1053280009D1012373E03D4B1B6803F00203002BF6
:1053380001D101236BE0394B5B6823F003027B68E2
:105348005B68364913434B60FDF726FAF8600AE0BC
:10535800FDF722FA0246FB68D31A41F288329342DB
:1053680001D9032353E02D4B5B6803F00C027B68E3
:105378005B689B009A42EBD1274B1B6803F007033D
:105388003A689A4210D2244B1B6823F0070222493C
:105398003B6813430B60204B1B6803F007033A6814
:1053A8009A4201D0012332E07B681B6803F00403B2
:1053B800002B08D0194B5B6823F4E0627B68DB683C
:1053C800164913434B607B681B6803F00803002BE6
:1053D80009D0124B5B6823F460527B681B69DB00C1
:1053E8000E4913434B6000F021F802460B4B5B68F3
:1053F8001B0903F00F030A49CB5C22FA03F3094A9D
:105408001360094B1B681846FDF784F900231846FA
:105418001037BD4680BD00BF00200240001002408A
:10542800046C0008980000209C000020F0B591B0A2
:1054380000AF564B07F114040FCB07C42380544B1D
:105448003C1D0FCB84E80F0000237B6300233B63E4
:105458000023FB630023FB620023BB630023BB62C2
:1054680000237B624B4B5B687B637B6B03F00C0315
:10547800042B02D0082B03D080E0474BBB6380E0AD
:105488007B6B9B0C03F00F0307F14002134413F8E6
:105498002C3CFB627B6B03F48033002B66D03D4BC6
:1054A800DB6A03F00F0307F14002134413F83C3C96
:1054B8003B63384BDB6A03F48033002B44D0354B15
:1054C800DB6A1B0903F00F030133BB62314BDB6A54
:1054D8001B0A03F00F0302337B627B6A18464FF006
:1054E8000001FB6A1A464FF0000302FB01F500FBBE
:1054F80003F42C44A0FB0223E1180B46264901FBC8
:1055080003F0002101FB02F101442348A2FB0045FE
:105518004B191D46BB6A18464FF000013B6B1A46F3
:105528004FF0000302FB01FC00FB03F66644A0FBFE
:105538000223F1180B4620462946FBF763FD024675
:105548000B461346FB6307E0FB6A134A02FB03F2B0
:105558003B6BB2FBF3F3FB6397F821301A46FB6A07
:10556800934208D1FB6B5B08FB6304E0FB6A0B4AC0
:1055780002FB03F3FB63FB6BBB6302E0084BBB63FB
:1055880000BFBB6B18464437BD46F0BDE46B00084E
:10559800F46B00080010024040787D0100093D00CE
:1055A80000127A0080B400AF024B1B681846BD4653
:1055B80080BC70479800002080B500AFFFF7F2FF6D
:1055C8000246054B5B681B0A03F007030349CB5CE3
:1055D80022FA03F3184680BD00100240146C00083C
:1055E80080B485B000AF78600A4B1B680A4AA2FBFA
:1055F80003235B0A7A6802FB03F3FB6000BFFB68C6
:105608005A1EFA60002BF9D100BF00BF1437BD46FF
:1056180080BC704798000020D34D6210014B186879
:10562800704700BFA400002070B500260C4D0D4C3B
:10563800641BA410A64209D101F0BCFA00260A4D49
:105648000A4C641BA410A64205D170BD55F8043B52
:1056580098470136EEE755F8043B98470136F2E7DC
:10566800306D0008306D0008306D0008346D00089A
:1056780003460244934200D1704703F8011BF9E73F
:105688000FB40A4B13B51C6824B1A36913B920469B
:1056980000F066F805AB2046049AA168019300F073
:1056A80081F902B0BDE8104004B07047A4000020A2
:1056B800002310B50446C0E90033C0E90433836011
:1056C80081814366C2818361194608225C30FFF7F5
:1056D800CFFF054B24626362044BA362044BE36271
:1056E800044B236310BD00BF595F00087B5F0008AF
:1056F800B35F0008D75F0008014900F0AFB800BFEA
:10570800B162000870B568254A1E55430E4605F17A
:10571800740100F0C5F8044640B10021C0E9001644
:105728000C30A06005F16802FFF7A2FF204670BDAB
:10573800014800F0B3B800BFD0020020014800F0D3
:10574800AEB800BFD0020020014800F0A7B800BFE3
:10575800CB020020014800F0A2B800BFCB02002015
:1057680010B50446FFF7F0FFA3691BB1BDE8104070
:10577800FFF7F0BFC4E912332365134B134A1B68C4
:10578800A262A34208BF0123204608BFA36100F01C
:105798001FF86060204600F01BF8A060204600F06B
:1057A80017F800220421E0606068FFF781FF0122FA
:1057B8000921A068FFF77CFF02221221E068FFF7A9
:1057C80077FF0123A361D1E71C6C0008015700088B
:1057D800F8B50746FFF7ACFF1E4B1E68B36913B94F
:1057E8003046FFF7BDFF4836D6E90134013B03D503
:1057F80033680BB33668F7E7B4F90C50D5B9164BD4
:1058080004F15800E360656600F047F8FFF796FF7B
:1058180008222946C4E90155C4E904552560A56153
:1058280004F15C00FFF724FFC4E90D55C4E91255E3
:105838002046F8BD6834D9E704213846FFF762FFEF
:10584800044630600028D5D1FFF778FF0C233B6071
:10585800EEE700BF1C6C00080100FFFF2DE9F843CC
:1058680006468846002700F14804D4E90195B9F1B5
:10587800010905D52468002CF7D13846BDE8F8831E
:10588800AB89012B07D9B5F90E30013303D029466E
:105898003046C04707436835E9E7704770477047A7
:1058A800F8B5CD1C25F0030508350C2D38BF0C259F
:1058B800002D064601DBA94203D90C2333600020E2
:1058C800F8BD00F0B1FD21490A6814469CB9204F83
:1058D8003B6823B92146304600F02AFB3860294648
:1058E800304600F025FB431C23D10C23304633609F
:1058F80000F0A0FDE3E723685B1B17D40B2B03D94B
:1059080023601C44256004E06368A2420CBF0B605E
:105918005360304600F08EFD04F10B00231D20F08B
:105928000700C21ACCD01B1AA350C9E722466468E4
:10593800CCE7C41C24F00304A042E3D0211A30466B
:1059480000F0F6FA0130DDD1CFE700BF34010020C6
:1059580038010020936810B4013B002B936007DAEC
:105968009469A34201DB0A2902D110BC00F034BBC0
:105978001368581C10601970084610BC7047F8B5B9
:1059880006460F461446D518AC4201D1002007E060
:105998003A46304614F8011BFFF7DCFF431CF3D1ED
:1059A800F8BD00002DE9F04F0D461446984606460E
:1059B8009DB018B183690BB9FFF7D2FE894B9D42A0
:1059C8001BD175686B6ED90705D4AB899A0502D4CB
:1059D800A86DFFF763FFAB891B0701D52B69EBB9EE
:1059E8002946304600F05CFBC0B16B6EDC070ED573
:1059F8004FF0FF301DB0BDE8F08F7B4B9D4201D1C9
:105A0800B568DFE7794B9D4208BFF568DAE7AB89EF
:105A18009805EDD4A86DFFF742FFE9E70023099345
:105A280020238DF8293030234FF00109CDF80C8060
:105A3800DFF8BC818DF82A3023469A4613F8012BEB
:105A48000AB1252AF9D1BAEB040B0BD05B462246E2
:105A580029463046FFF793FF013000F0AA80099AE3
:105A68005A4409929AF80030002B00F0A2800023D3
:105A78004FF0FF32CDE905230AF1010A0493079399
:105A88008DF853301A935446052214F8011B5848D0
:105A980000F0BCFC049AD8B9D10644BF20238DF885
:105AA8005330130744BF2B238DF853309AF8003036
:105AB8002A2B15D0544600204FF00A0C079A21468D
:105AC80011F8013B303B092B4ED9B0B1079214E0D5
